{
  "contractName": "SimpleTrackerRegistry",
  "abi": [
    {
      "inputs": [
        {
          "internalType": "address",
          "name": "owner",
          "type": "address"
        },
        {
          "internalType": "bool",
          "name": "requiresWhitelist_",
          "type": "bool"
        }
      ],
      "stateMutability": "nonpayable",
      "type": "constructor"
    },
    {
      "anonymous": false,
      "inputs": [
        {
          "indexed": true,
          "internalType": "address",
          "name": "nodeAddress",
          "type": "address"
        }
      ],
      "name": "NodeRemoved",
      "type": "event"
    },
    {
      "anonymous": false,
      "inputs": [
        {
          "indexed": true,
          "internalType": "address",
          "name": "nodeAddress",
          "type": "address"
        },
        {
          "indexed": true,
          "internalType": "string",
          "name": "url",
          "type": "string"
        },
        {
          "indexed": true,
          "internalType": "uint256",
          "name": "isNew",
          "type": "uint256"
        },
        {
          "indexed": false,
          "internalType": "uint256",
          "name": "lastSeen",
          "type": "uint256"
        }
      ],
      "name": "NodeUpdated",
      "type": "event"
    },
    {
      "anonymous": false,
      "inputs": [
        {
          "indexed": true,
          "internalType": "address",
          "name": "nodeAddress",
          "type": "address"
        }
      ],
      "name": "NodeWhitelistApproved",
      "type": "event"
    },
    {
      "anonymous": false,
      "inputs": [
        {
          "indexed": true,
          "internalType": "address",
          "name": "nodeAddress",
          "type": "address"
        }
      ],
      "name": "NodeWhitelistRejected",
      "type": "event"
    },
    {
      "anonymous": false,
      "inputs": [
        {
          "indexed": true,
          "internalType": "address",
          "name": "previousOwner",
          "type": "address"
        },
        {
          "indexed": true,
          "internalType": "address",
          "name": "newOwner",
          "type": "address"
        }
      ],
      "name": "OwnershipTransferred",
      "type": "event"
    },
    {
      "anonymous": false,
      "inputs": [
        {
          "indexed": true,
          "internalType": "bool",
          "name": "value",
          "type": "bool"
        }
      ],
      "name": "RequiresWhitelistChanged",
      "type": "event"
    },
    {
      "inputs": [],
      "name": "claimOwnership",
      "outputs": [],
      "stateMutability": "nonpayable",
      "type": "function"
    },
    {
      "inputs": [
        {
          "internalType": "address",
          "name": "node",
          "type": "address"
        },
        {
          "internalType": "string",
          "name": "url_",
          "type": "string"
        }
      ],
      "name": "createOrUpdateNode",
      "outputs": [],
      "stateMutability": "nonpayable",
      "type": "function"
    },
    {
      "inputs": [
        {
          "internalType": "string",
          "name": "url_",
          "type": "string"
        }
      ],
      "name": "createOrUpdateNodeSelf",
      "outputs": [],
      "stateMutability": "nonpayable",
      "type": "function"
    },
    {
      "inputs": [
        {
          "internalType": "address",
          "name": "nodeAddress",
          "type": "address"
        }
      ],
      "name": "getNode",
      "outputs": [
        {
          "components": [
            {
              "internalType": "address",
              "name": "nodeAddress",
              "type": "address"
            },
            {
              "internalType": "string",
              "name": "url",
              "type": "string"
            },
            {
              "internalType": "uint256",
              "name": "lastSeen",
              "type": "uint256"
            }
          ],
          "internalType": "struct NodeRegistry.Node",
          "name": "",
          "type": "tuple"
        }
      ],
      "stateMutability": "view",
      "type": "function"
    },
    {
      "inputs": [
        {
          "internalType": "uint256",
          "name": "i",
          "type": "uint256"
        }
      ],
      "name": "getNodeByNumber",
      "outputs": [
        {
          "components": [
            {
              "internalType": "address",
              "name": "nodeAddress",
              "type": "address"
            },
            {
              "internalType": "string",
              "name": "url",
              "type": "string"
            },
            {
              "internalType": "uint256",
              "name": "lastSeen",
              "type": "uint256"
            }
          ],
          "internalType": "struct NodeRegistry.Node",
          "name": "",
          "type": "tuple"
        }
      ],
      "stateMutability": "view",
      "type": "function"
    },
    {
      "inputs": [],
      "name": "getNodes",
      "outputs": [
        {
          "components": [
            {
              "internalType": "address",
              "name": "nodeAddress",
              "type": "address"
            },
            {
              "internalType": "string",
              "name": "url",
              "type": "string"
            },
            {
              "internalType": "uint256",
              "name": "lastSeen",
              "type": "uint256"
            }
          ],
          "internalType": "struct NodeRegistry.Node[]",
          "name": "",
          "type": "tuple[]"
        }
      ],
      "stateMutability": "view",
      "type": "function"
    },
    {
      "inputs": [],
      "name": "headNode",
      "outputs": [
        {
          "internalType": "address",
          "name": "",
          "type": "address"
        }
      ],
      "stateMutability": "view",
      "type": "function"
    },
    {
      "inputs": [
        {
          "internalType": "address",
          "name": "nodeAddress",
          "type": "address"
        }
      ],
      "name": "kickOut",
      "outputs": [],
      "stateMutability": "nonpayable",
      "type": "function"
    },
    {
      "inputs": [],
      "name": "nodeCount",
      "outputs": [
        {
          "internalType": "uint64",
          "name": "",
          "type": "uint64"
        }
      ],
      "stateMutability": "view",
      "type": "function"
    },
    {
      "inputs": [],
      "name": "owner",
      "outputs": [
        {
          "internalType": "address",
          "name": "",
          "type": "address"
        }
      ],
      "stateMutability": "view",
      "type": "function"
    },
    {
      "inputs": [],
      "name": "pendingOwner",
      "outputs": [
        {
          "internalType": "address",
          "name": "",
          "type": "address"
        }
      ],
      "stateMutability": "view",
      "type": "function"
    },
    {
      "inputs": [
        {
          "internalType": "address",
          "name": "nodeAddress",
          "type": "address"
        }
      ],
      "name": "removeNode",
      "outputs": [],
      "stateMutability": "nonpayable",
      "type": "function"
    },
    {
      "inputs": [],
      "name": "removeNodeSelf",
      "outputs": [],
      "stateMutability": "nonpayable",
      "type": "function"
    },
    {
      "inputs": [
        {
          "internalType": "bool",
          "name": "value",
          "type": "bool"
        }
      ],
      "name": "setRequiresWhitelist",
      "outputs": [],
      "stateMutability": "nonpayable",
      "type": "function"
    },
    {
      "inputs": [],
      "name": "tailNode",
      "outputs": [
        {
          "internalType": "address",
          "name": "",
          "type": "address"
        }
      ],
      "stateMutability": "view",
      "type": "function"
    },
    {
      "inputs": [
        {
          "internalType": "address",
          "name": "newOwner",
          "type": "address"
        }
      ],
      "name": "transferOwnership",
      "outputs": [],
      "stateMutability": "nonpayable",
      "type": "function"
    },
    {
      "inputs": [
        {
          "internalType": "address",
          "name": "nodeAddress",
          "type": "address"
        }
      ],
      "name": "whitelistApproveNode",
      "outputs": [],
      "stateMutability": "nonpayable",
      "type": "function"
    },
    {
      "inputs": [
        {
          "internalType": "address",
          "name": "nodeAddress",
          "type": "address"
        }
      ],
      "name": "whitelistRejectNode",
      "outputs": [],
      "stateMutability": "nonpayable",
      "type": "function"
    },
    {
      "inputs": [
        {
          "internalType": "string",
          "name": "streamId",
          "type": "string"
        },
        {
          "internalType": "uint256",
          "name": "partition",
          "type": "uint256"
        }
      ],
      "name": "getTrackers",
      "outputs": [
        {
          "internalType": "string[]",
          "name": "",
          "type": "string[]"
        }
      ],
      "stateMutability": "view",
      "type": "function"
    }
  ],
  "bytecode": "0x608060405234801561001057600080fd5b506040516115af3803806115af83398101604081905261002f91610072565b600080546001600160a01b039093166001600160a01b03199093169290921790915560038054911515600160a01b0260ff60a01b199092169190911790556100ba565b60008060408385031215610084578182fd5b82516001600160a01b038116811461009a578283fd5b602084015190925080151581146100af578182fd5b809150509250929050565b6114e6806100c96000396000f3fe608060405234801561001057600080fd5b50600436106101215760003560e01c806399e68eea116100ad578063bfdf086611610071578063bfdf086614610243578063e29581aa1461024b578063e30c397814610260578063e670c15d14610268578063f2fde38b1461027057610121565b806399e68eea146101ca5780639d209048146101dd578063aacf5415146101fd578063ae5b49611461021d578063b2b99ec91461023057610121565b80635668c8fb116100f45780635668c8fb146101745780635888799c146101875780635d8f7f2a1461019a5780636da49b83146101ad5780638da5cb5b146101c257610121565b806320a59a03146101265780632af575801461013b57806346c198f61461014e5780634e71e0c81461016c575b600080fd5b61013961013436600461110c565b610283565b005b610139610149366004611085565b6102ff565b610156610375565b60405161016391906112b9565b60405180910390f35b610139610384565b610139610182366004611085565b610412565b610139610195366004611085565b610451565b6101396101a83660046110b3565b6104c7565b6101b56104ff565b604051610163919061149b565b610156610516565b6101396101d836600461112c565b610525565b6101f06101eb366004611085565b610581565b604051610163919061147f565b61021061020b366004611167565b610660565b60405161016391906112cd565b6101f061022b3660046111aa565b610714565b61013961023e366004611085565b610861565b610156610894565b6102536108a3565b604051610163919061132d565b610156610a3a565b610139610a49565b61013961027e366004611085565b610a54565b6000546001600160a01b031633146102b65760405162461bcd60e51b81526004016102ad9061145c565b60405180910390fd5b6003805460ff60a01b1916600160a01b831515908102919091179091556040517f7623db9c426686f05cec977c4cadb8ff9657502540ca665ae347731114dac69d90600090a250565b6000546001600160a01b031633146103295760405162461bcd60e51b81526004016102ad9061145c565b6001600160a01b038116600081815260056020526040808220805460ff19166002179055517fbbe2a784aa6240d8175fa65a8459058efd8f44c5ab66caa2525fe9d6342108789190a250565b6003546001600160a01b031681565b6001546001600160a01b031633146103ae5760405162461bcd60e51b81526004016102ad90611432565b600154600080546040516001600160a01b0393841693909116917f8be0079c531659141344cd1fd0a4f28419497f9722a3daafe3b4186f6b6457e091a360018054600080546001600160a01b03199081166001600160a01b03841617909155169055565b6000546001600160a01b0316331461043c5760405162461bcd60e51b81526004016102ad9061145c565b610445816102ff565b61044e81610861565b50565b6000546001600160a01b0316331461047b5760405162461bcd60e51b81526004016102ad9061145c565b6001600160a01b038116600081815260056020526040808220805460ff19166001179055517fdfe83f699699403a4b116b6f9504680228c3f319bbf5ab26b48a81d3005d98b29190a250565b6000546001600160a01b031633146104f15760405162461bcd60e51b81526004016102ad9061145c565b6104fb8282610aa0565b5050565b600154600160a01b900467ffffffffffffffff1681565b6000546001600160a01b031681565b600354600160a01b900460ff16158061055b575060013360009081526005602052604090205460ff16600281111561055957fe5b145b6105775760405162461bcd60e51b81526004016102ad906113a2565b61044e3382610aa0565b610589610f05565b6001600160a01b03828116600090815260046020908152604091829020825160608101845281549094168452600180820180548551600261010094831615949094026000190190911692909204601f810185900485028301850190955284825291949385938581019391908301828280156106455780601f1061061a57610100808354040283529160200191610645565b820191906000526020600020905b81548152906001019060200180831161062857829003601f168201915b50505050508152602001600282015481525050915050919050565b606060008383604051602001610677929190611380565b60408051808303601f190181529190528051602090910120600154909150600090600160a01b900467ffffffffffffffff1682816106b157fe5b60408051600180825281830190925292909106925060609190816020015b60608152602001906001900390816106cf5790505090506106ef82610714565b602001518160008151811061070057fe5b602090810291909101015295945050505050565b61071c610f05565b600154600160a01b900467ffffffffffffffff16821061074e5760405162461bcd60e51b81526004016102ad906113c7565b6003546001600160a01b0316600081815260046020526040902060015b84811161079b576003909101546001600160a01b031660008181526004602052604090209092509060010161076b565b506040805160608101825282546001600160a01b031681526001808401805484516020600261010095841615959095026000190190921693909304601f810182900482028401820190955284835292938593808601939291908301828280156108455780601f1061081a57610100808354040283529160200191610845565b820191906000526020600020905b81548152906001019060200180831161082857829003601f168201915b5050505050815260200160028201548152505092505050919050565b6000546001600160a01b0316331461088b5760405162461bcd60e51b81526004016102ad9061145c565b61044e81610cd1565b6002546001600160a01b031681565b600154606090819067ffffffffffffffff600160a01b909104811690811180156108cc57600080fd5b5060405190808252806020026020018201604052801561090657816020015b6108f3610f05565b8152602001906001900390816108eb5790505b506003549091506001600160a01b031660005b600154600160a01b900467ffffffffffffffff16811015610a31576001600160a01b03828116600090815260046020908152604091829020825160608101845281549094168452600180820180548551600261010094831615949094026000190190911692909204601f810185900485028301850190955284825291949385938581019391908301828280156109f05780601f106109c5576101008083540402835291602001916109f0565b820191906000526020600020905b8154815290600101906020018083116109d357829003601f168201915b50505050508152602001600282015481525050848381518110610a0f57fe5b6020908102919091010152600301546001600160a01b03169150600101610919565b50909150505b90565b6001546001600160a01b031681565b610a5233610cd1565b565b6000546001600160a01b03163314610a7e5760405162461bcd60e51b81526004016102ad9061145c565b600180546001600160a01b0319166001600160a01b0392909216919091179055565b6001600160a01b03821660009081526004602052604081206002810154909190610c4b57506040805160c0810182526001600160a01b0385811660608301818152608084018790524260a085015283526000602080850182905260025484168587015291815260048252939093208251805182546001600160a01b03191693169290921781558184015180516001959293928492610b4692888501929190910190610f2f565b5060409182015160029182015560208401516003840180546001600160a01b039283166001600160a01b03199182161790915594909201516004909301805493831693909416929092179092556001805467ffffffffffffffff600160a01b808304821684019091160267ffffffffffffffff60a01b19909116179055541615610bff576002546001600160a01b03908116600090815260046020526040902060030180546001600160a01b0319169186169190911790555b6003546001600160a01b0316610c2b57600380546001600160a01b0319166001600160a01b0386161790555b600280546001600160a01b0319166001600160a01b038616179055610c68565b8251610c609060018401906020860190610f2f565b504260028301555b6040518190610c7b906001850190611249565b6040518091039020856001600160a01b03167f7b8ea65757bf0d882563917834f76c4df069ea7e489c9fc65bf764289792e3348560000160020154604051610cc39190611492565b60405180910390a450505050565b6001600160a01b03811660009081526004602052604090206002810154610d0a5760405162461bcd60e51b81526004016102ad90611410565b60048101546001600160a01b031615610d5a576004818101546001600160a01b0390811660009081526020929092526040909120600380840154910180546001600160a01b031916919092161790555b60038101546001600160a01b031615610da85760038101546001600160a01b03908116600090815260046020819052604090912083820154910180546001600160a01b031916919092161790555b6001805460001967ffffffffffffffff600160a01b808404821692909201160267ffffffffffffffff60a01b199091161790556002546001600160a01b0383811691161415610e2457600280546001600160a01b0380821660009081526004602081905260409091200154166001600160a01b03199091161790555b6003546001600160a01b0383811691161415610e6b57600380546001600160a01b038082166000908152600460205260409020830154166001600160a01b03199091161790555b6001600160a01b038216600090815260046020526040812080546001600160a01b0319168155908181610ea16001830182610fad565b5060006002919091018190556003830180546001600160a01b031990811690915560049093018054909316909255506040516001600160a01b038416917fcfc24166db4bb677e857cacabd1541fb2b30645021b27c5130419589b84db52b91a25050565b604051806060016040528060006001600160a01b0316815260200160608152602001600081525090565b828054600181600116156101000203166002900490600052602060002090601f016020900481019282601f10610f7057805160ff1916838001178555610f9d565b82800160010185558215610f9d579182015b82811115610f9d578251825591602001919060010190610f82565b50610fa9929150610fed565b5090565b50805460018160011615610100020316600290046000825580601f10610fd3575061044e565b601f01602090049060005260206000209081019061044e91905b610a3791905b80821115610fa95760008155600101610ff3565b600082601f830112611017578081fd5b813567ffffffffffffffff8082111561102e578283fd5b604051601f8301601f19168101602001828111828210171561104e578485fd5b60405282815292508284830160200186101561106957600080fd5b8260208601602083013760006020848301015250505092915050565b600060208284031215611096578081fd5b81356001600160a01b03811681146110ac578182fd5b9392505050565b600080604083850312156110c5578081fd5b82356001600160a01b03811681146110db578182fd5b9150602083013567ffffffffffffffff8111156110f6578182fd5b61110285828601611007565b9150509250929050565b60006020828403121561111d578081fd5b813580151581146110ac578182fd5b60006020828403121561113d578081fd5b813567ffffffffffffffff811115611153578182fd5b61115f84828501611007565b949350505050565b60008060408385031215611179578182fd5b823567ffffffffffffffff81111561118f578283fd5b61119b85828601611007565b95602094909401359450505050565b6000602082840312156111bb578081fd5b5035919050565b60008151808452815b818110156111e7576020818501810151868301820152016111cb565b818111156111f85782602083870101525b50601f01601f19169290920160200192915050565b600060018060a01b03825116835260208201516060602085015261123460608501826111c2565b60408401516040860152809250505092915050565b6000808354600180821660008114611268576001811461127f576112ae565b60ff198316865260028304607f16860193506112ae565b600283048786526020808720875b838110156112a65781548a82015290850190820161128d565b505050860193505b509195945050505050565b6001600160a01b0391909116815260200190565b6000602080830181845280855180835260408601915060408482028701019250838701855b8281101561132057603f1988860301845261130e8583516111c2565b945092850192908501906001016112f2565b5092979650505050505050565b6000602080830181845280855180835260408601915060408482028701019250838701855b8281101561132057603f1988860301845261136e85835161120d565b94509285019290850190600101611352565b60006040825261139360408301856111c2565b90508260208301529392505050565b6020808252600b908201526a1b9bdd105c1c1c9bdd995960aa1b604082015260600190565b60208082526029908201527f6765744e74684e6f64653a206e206d757374206265206c657373207468616e206040820152681b9bd91950dbdd5b9d60ba1b606082015260800190565b6020808252600890820152671b9bdd119bdd5b9960c21b604082015260600190565b60208082526010908201526f37b7363ca832b73234b733a7bbb732b960811b604082015260600190565b60208082526009908201526837b7363ca7bbb732b960b91b604082015260600190565b6000602082526110ac602083018461120d565b90815260200190565b67ffffffffffffffff9190911681526020019056fea2646970667358221220911109dc42badbd2480f189d51bb9e2e3c3ee5fe5c120137d74cbd8f31dd87f664736f6c63430006060033",
  "immutableReferences": {},
  "source": "pragma solidity ^0.6.0;\npragma experimental ABIEncoderV2;\nimport \"./TrackerRegistry.sol\";\nimport \"./NodeRegistry.sol\";\n\ncontract SimpleTrackerRegistry is TrackerRegistry, NodeRegistry{\n\n    constructor(address owner, bool requiresWhitelist_) NodeRegistry(owner, requiresWhitelist_) public {}\n\n    function getTrackers(string memory streamId, uint partition) public override view returns (string[] memory) {\n        bytes32 hash = keccak256(abi.encode(streamId, partition));\n        uint nodeNum = uint256(hash) % nodeCount;\n        string[] memory trackers = new string[](1);\n        trackers[0] = getNodeByNumber(nodeNum).url;\n        return trackers;\n    }\n}\n",
  "sourcePath": "/home/heynow/streamr/network-contracts/contracts/SimpleTrackerRegistry.sol",
  "compiler": {
    "name": "solc",
    "version": "0.6.6+commit.6c089d02.Emscripten.clang"
  },
  "schemaVersion": "3.1.0",
  "updatedAt": "2020-04-28T10:04:14.295Z",
  "devdoc": {
    "methods": {
      "claimOwnership()": {
        "details": "Allows the pendingOwner address to finalize the transfer."
      },
      "transferOwnership(address)": {
        "details": "Allows the current owner to set the pendingOwner address.",
        "params": {
          "newOwner": "The address to transfer ownership to."
        }
      }
    }
  },
  "userdoc": {
    "methods": {}
  }
}