{
  "_format": "hh-sol-artifact-1",
  "contractName": "NodeRegistry",
  "sourceName": "contracts/NodeRegistry/NodeRegistry.sol",
  "abi": [
    {
      "inputs": [
        {
          "internalType": "address",
          "name": "owner",
          "type": "address"
        },
        {
          "internalType": "bool",
          "name": "requiresWhitelist_",
          "type": "bool"
        },
        {
          "internalType": "address[]",
          "name": "initialNodes",
          "type": "address[]"
        },
        {
          "internalType": "string[]",
          "name": "initialMetadata",
          "type": "string[]"
        }
      ],
      "stateMutability": "nonpayable",
      "type": "constructor"
    },
    {
      "anonymous": false,
      "inputs": [
        {
          "indexed": true,
          "internalType": "address",
          "name": "nodeAddress",
          "type": "address"
        }
      ],
      "name": "NodeRemoved",
      "type": "event"
    },
    {
      "anonymous": false,
      "inputs": [
        {
          "indexed": true,
          "internalType": "address",
          "name": "nodeAddress",
          "type": "address"
        },
        {
          "indexed": true,
          "internalType": "string",
          "name": "metadata",
          "type": "string"
        },
        {
          "indexed": true,
          "internalType": "uint256",
          "name": "isNew",
          "type": "uint256"
        },
        {
          "indexed": false,
          "internalType": "uint256",
          "name": "lastSeen",
          "type": "uint256"
        }
      ],
      "name": "NodeUpdated",
      "type": "event"
    },
    {
      "anonymous": false,
      "inputs": [
        {
          "indexed": true,
          "internalType": "address",
          "name": "nodeAddress",
          "type": "address"
        }
      ],
      "name": "NodeWhitelistApproved",
      "type": "event"
    },
    {
      "anonymous": false,
      "inputs": [
        {
          "indexed": true,
          "internalType": "address",
          "name": "nodeAddress",
          "type": "address"
        }
      ],
      "name": "NodeWhitelistRejected",
      "type": "event"
    },
    {
      "anonymous": false,
      "inputs": [
        {
          "indexed": true,
          "internalType": "address",
          "name": "previousOwner",
          "type": "address"
        },
        {
          "indexed": true,
          "internalType": "address",
          "name": "newOwner",
          "type": "address"
        }
      ],
      "name": "OwnershipTransferred",
      "type": "event"
    },
    {
      "anonymous": false,
      "inputs": [
        {
          "indexed": true,
          "internalType": "bool",
          "name": "value",
          "type": "bool"
        }
      ],
      "name": "RequiresWhitelistChanged",
      "type": "event"
    },
    {
      "inputs": [],
      "name": "claimOwnership",
      "outputs": [],
      "stateMutability": "nonpayable",
      "type": "function"
    },
    {
      "inputs": [
        {
          "internalType": "address",
          "name": "node",
          "type": "address"
        },
        {
          "internalType": "string",
          "name": "metadata_",
          "type": "string"
        }
      ],
      "name": "createOrUpdateNode",
      "outputs": [],
      "stateMutability": "nonpayable",
      "type": "function"
    },
    {
      "inputs": [
        {
          "internalType": "string",
          "name": "metadata_",
          "type": "string"
        }
      ],
      "name": "createOrUpdateNodeSelf",
      "outputs": [],
      "stateMutability": "nonpayable",
      "type": "function"
    },
    {
      "inputs": [
        {
          "internalType": "address",
          "name": "nodeAddress",
          "type": "address"
        }
      ],
      "name": "getNode",
      "outputs": [
        {
          "components": [
            {
              "internalType": "address",
              "name": "nodeAddress",
              "type": "address"
            },
            {
              "internalType": "string",
              "name": "metadata",
              "type": "string"
            },
            {
              "internalType": "uint256",
              "name": "lastSeen",
              "type": "uint256"
            }
          ],
          "internalType": "struct NodeRegistry.Node",
          "name": "",
          "type": "tuple"
        }
      ],
      "stateMutability": "view",
      "type": "function"
    },
    {
      "inputs": [
        {
          "internalType": "uint256",
          "name": "i",
          "type": "uint256"
        }
      ],
      "name": "getNodeByNumber",
      "outputs": [
        {
          "components": [
            {
              "internalType": "address",
              "name": "nodeAddress",
              "type": "address"
            },
            {
              "internalType": "string",
              "name": "metadata",
              "type": "string"
            },
            {
              "internalType": "uint256",
              "name": "lastSeen",
              "type": "uint256"
            }
          ],
          "internalType": "struct NodeRegistry.Node",
          "name": "",
          "type": "tuple"
        }
      ],
      "stateMutability": "view",
      "type": "function"
    },
    {
      "inputs": [],
      "name": "getNodes",
      "outputs": [
        {
          "components": [
            {
              "internalType": "address",
              "name": "nodeAddress",
              "type": "address"
            },
            {
              "internalType": "string",
              "name": "metadata",
              "type": "string"
            },
            {
              "internalType": "uint256",
              "name": "lastSeen",
              "type": "uint256"
            }
          ],
          "internalType": "struct NodeRegistry.Node[]",
          "name": "",
          "type": "tuple[]"
        }
      ],
      "stateMutability": "view",
      "type": "function"
    },
    {
      "inputs": [],
      "name": "headNode",
      "outputs": [
        {
          "internalType": "address",
          "name": "",
          "type": "address"
        }
      ],
      "stateMutability": "view",
      "type": "function"
    },
    {
      "inputs": [
        {
          "internalType": "address",
          "name": "nodeAddress",
          "type": "address"
        }
      ],
      "name": "kickOut",
      "outputs": [],
      "stateMutability": "nonpayable",
      "type": "function"
    },
    {
      "inputs": [],
      "name": "nodeCount",
      "outputs": [
        {
          "internalType": "uint64",
          "name": "",
          "type": "uint64"
        }
      ],
      "stateMutability": "view",
      "type": "function"
    },
    {
      "inputs": [
        {
          "internalType": "address",
          "name": "",
          "type": "address"
        }
      ],
      "name": "nodes",
      "outputs": [
        {
          "components": [
            {
              "internalType": "address",
              "name": "nodeAddress",
              "type": "address"
            },
            {
              "internalType": "string",
              "name": "metadata",
              "type": "string"
            },
            {
              "internalType": "uint256",
              "name": "lastSeen",
              "type": "uint256"
            }
          ],
          "internalType": "struct NodeRegistry.Node",
          "name": "node",
          "type": "tuple"
        },
        {
          "internalType": "address",
          "name": "next",
          "type": "address"
        },
        {
          "internalType": "address",
          "name": "prev",
          "type": "address"
        }
      ],
      "stateMutability": "view",
      "type": "function"
    },
    {
      "inputs": [],
      "name": "owner",
      "outputs": [
        {
          "internalType": "address",
          "name": "",
          "type": "address"
        }
      ],
      "stateMutability": "view",
      "type": "function"
    },
    {
      "inputs": [],
      "name": "pendingOwner",
      "outputs": [
        {
          "internalType": "address",
          "name": "",
          "type": "address"
        }
      ],
      "stateMutability": "view",
      "type": "function"
    },
    {
      "inputs": [
        {
          "internalType": "address",
          "name": "nodeAddress",
          "type": "address"
        }
      ],
      "name": "removeNode",
      "outputs": [],
      "stateMutability": "nonpayable",
      "type": "function"
    },
    {
      "inputs": [],
      "name": "removeNodeSelf",
      "outputs": [],
      "stateMutability": "nonpayable",
      "type": "function"
    },
    {
      "inputs": [],
      "name": "requiresWhitelist",
      "outputs": [
        {
          "internalType": "bool",
          "name": "",
          "type": "bool"
        }
      ],
      "stateMutability": "view",
      "type": "function"
    },
    {
      "inputs": [
        {
          "internalType": "bool",
          "name": "value",
          "type": "bool"
        }
      ],
      "name": "setRequiresWhitelist",
      "outputs": [],
      "stateMutability": "nonpayable",
      "type": "function"
    },
    {
      "inputs": [],
      "name": "tailNode",
      "outputs": [
        {
          "internalType": "address",
          "name": "",
          "type": "address"
        }
      ],
      "stateMutability": "view",
      "type": "function"
    },
    {
      "inputs": [
        {
          "internalType": "address",
          "name": "newOwner",
          "type": "address"
        }
      ],
      "name": "transferOwnership",
      "outputs": [],
      "stateMutability": "nonpayable",
      "type": "function"
    },
    {
      "inputs": [
        {
          "internalType": "address",
          "name": "",
          "type": "address"
        }
      ],
      "name": "whitelist",
      "outputs": [
        {
          "internalType": "enum NodeRegistry.WhitelistState",
          "name": "",
          "type": "uint8"
        }
      ],
      "stateMutability": "view",
      "type": "function"
    },
    {
      "inputs": [
        {
          "internalType": "address",
          "name": "nodeAddress",
          "type": "address"
        }
      ],
      "name": "whitelistApproveNode",
      "outputs": [],
      "stateMutability": "nonpayable",
      "type": "function"
    },
    {
      "inputs": [
        {
          "internalType": "address",
          "name": "nodeAddress",
          "type": "address"
        }
      ],
      "name": "whitelistRejectNode",
      "outputs": [],
      "stateMutability": "nonpayable",
      "type": "function"
    }
  ],
  "bytecode": "0x60806040523480156200001157600080fd5b5060405162003d4338038062003d438339818101604052810190620000379190620009dd565b83806000806101000a81548173ffffffffffffffffffffffffffffffffffffffff021916908373ffffffffffffffffffffffffffffffffffffffff1602179055505082600360146101000a81548160ff0219169083151502179055508051825114620000da576040517f08c379a0000000000000000000000000000000000000000000000000000000008152600401620000d19062000b7e565b60405180910390fd5b60005b825181101562000191576200017b83828151811062000125577f4e487b7100000000000000000000000000000000000000000000000000000000600052603260045260246000fd5b602002602001015183838151811062000167577f4e487b7100000000000000000000000000000000000000000000000000000000600052603260045260246000fd5b60200260200101516200019c60201b60201c565b8080620001889062000dcd565b915050620000dd565b505050505062000f75565b60008054906101000a900473ffffffffffffffffffffffffffffffffffffffff1673ffffffffffffffffffffffffffffffffffffffff163373ffffffffffffffffffffffffffffffffffffffff16146200022d576040517f08c379a0000000000000000000000000000000000000000000000000000000008152600401620002249062000ba0565b60405180910390fd5b6200023f82826200024360201b60201c565b5050565b6000600460008473ffffffffffffffffffffffffffffffffffffffff1673ffffffffffffffffffffffffffffffffffffffff168152602001908152602001600020905060008082600001600201541415620006b25760019050604051806060016040528060405180606001604052808773ffffffffffffffffffffffffffffffffffffffff168152602001868152602001428152508152602001600073ffffffffffffffffffffffffffffffffffffffff168152602001600260009054906101000a900473ffffffffffffffffffffffffffffffffffffffff1673ffffffffffffffffffffffffffffffffffffffff16815250600460008673ffffffffffffffffffffffffffffffffffffffff1673ffffffffffffffffffffffffffffffffffffffff16815260200190815260200160002060008201518160000160008201518160000160006101000a81548173ffffffffffffffffffffffffffffffffffffffff021916908373ffffffffffffffffffffffffffffffffffffffff1602179055506020820151816001019080519060200190620003e392919062000759565b5060408201518160020155505060208201518160030160006101000a81548173ffffffffffffffffffffffffffffffffffffffff021916908373ffffffffffffffffffffffffffffffffffffffff16021790555060408201518160040160006101000a81548173ffffffffffffffffffffffffffffffffffffffff021916908373ffffffffffffffffffffffffffffffffffffffff1602179055509050506001601481819054906101000a900467ffffffffffffffff1680929190620004a99062000e1b565b91906101000a81548167ffffffffffffffff021916908367ffffffffffffffff16021790555050600073ffffffffffffffffffffffffffffffffffffffff16600260009054906101000a900473ffffffffffffffffffffffffffffffffffffffff1673ffffffffffffffffffffffffffffffffffffffff1614620005d157600060046000600260009054906101000a900473ffffffffffffffffffffffffffffffffffffffff1673ffffffffffffffffffffffffffffffffffffffff1673ffffffffffffffffffffffffffffffffffffffff1681526020019081526020016000209050848160030160006101000a81548173ffffffffffffffffffffffffffffffffffffffff021916908373ffffffffffffffffffffffffffffffffffffffff160217905550505b600073ffffffffffffffffffffffffffffffffffffffff16600360009054906101000a900473ffffffffffffffffffffffffffffffffffffffff1673ffffffffffffffffffffffffffffffffffffffff1614156200066b5783600360006101000a81548173ffffffffffffffffffffffffffffffffffffffff021916908373ffffffffffffffffffffffffffffffffffffffff1602179055505b83600260006101000a81548173ffffffffffffffffffffffffffffffffffffffff021916908373ffffffffffffffffffffffffffffffffffffffff160217905550620006dd565b82826000016001019080519060200190620006cf92919062000759565b504282600001600201819055505b8082600001600101604051620006f4919062000b65565b60405180910390208573ffffffffffffffffffffffffffffffffffffffff167f7b8ea65757bf0d882563917834f76c4df069ea7e489c9fc65bf764289792e33485600001600201546040516200074b919062000bc2565b60405180910390a450505050565b828054620007679062000d61565b90600052602060002090601f0160209004810192826200078b5760008555620007d7565b82601f10620007a657805160ff1916838001178555620007d7565b82800160010185558215620007d7579182015b82811115620007d6578251825591602001919060010190620007b9565b5b509050620007e69190620007ea565b5090565b5b8082111562000805576000816000905550600101620007eb565b5090565b6000620008206200081a8462000c08565b62000bdf565b905080838252602082019050828560208602820111156200084057600080fd5b60005b8581101562000874578162000859888262000928565b84526020840193506020830192505060018101905062000843565b5050509392505050565b6000620008956200088f8462000c37565b62000bdf565b9050808382526020820190508260005b85811015620008d95781518501620008be8882620009b0565b845260208401935060208301925050600181019050620008a5565b5050509392505050565b6000620008fa620008f48462000c66565b62000bdf565b9050828152602081018484840111156200091357600080fd5b6200092084828562000d2b565b509392505050565b600081519050620009398162000f41565b92915050565b600082601f8301126200095157600080fd5b81516200096384826020860162000809565b91505092915050565b600082601f8301126200097e57600080fd5b8151620009908482602086016200087e565b91505092915050565b600081519050620009aa8162000f5b565b92915050565b600082601f830112620009c257600080fd5b8151620009d4848260208601620008e3565b91505092915050565b60008060008060808587031215620009f457600080fd5b600062000a048782880162000928565b945050602062000a178782880162000999565b935050604085015167ffffffffffffffff81111562000a3557600080fd5b62000a43878288016200093f565b925050606085015167ffffffffffffffff81111562000a6157600080fd5b62000a6f878288016200096c565b91505092959194509250565b6000815462000a8a8162000d61565b62000a96818662000cc2565b9450600182166000811462000ab4576001811462000ac65762000afd565b60ff1983168652818601935062000afd565b62000ad18562000c9c565b60005b8381101562000af55781548189015260018201915060208101905062000ad4565b838801955050505b50505092915050565b600062000b1560148362000cb1565b915062000b228262000eef565b602082019050919050565b600062000b3c60098362000cb1565b915062000b498262000f18565b602082019050919050565b62000b5f8162000d0d565b82525050565b600062000b73828462000a7b565b915081905092915050565b6000602082019050818103600083015262000b998162000b06565b9050919050565b6000602082019050818103600083015262000bbb8162000b2d565b9050919050565b600060208201905062000bd9600083018462000b54565b92915050565b600062000beb62000bfe565b905062000bf9828262000d97565b919050565b6000604051905090565b600067ffffffffffffffff82111562000c265762000c2562000eaf565b5b602082029050602081019050919050565b600067ffffffffffffffff82111562000c555762000c5462000eaf565b5b602082029050602081019050919050565b600067ffffffffffffffff82111562000c845762000c8362000eaf565b5b62000c8f8262000ede565b9050602081019050919050565b60008190508160005260206000209050919050565b600082825260208201905092915050565b600081905092915050565b600062000cda8262000ced565b9050919050565b60008115159050919050565b600073ffffffffffffffffffffffffffffffffffffffff82169050919050565b6000819050919050565b600067ffffffffffffffff82169050919050565b60005b8381101562000d4b57808201518184015260208101905062000d2e565b8381111562000d5b576000848401525b50505050565b6000600282049050600182168062000d7a57607f821691505b6020821081141562000d915762000d9062000e80565b5b50919050565b62000da28262000ede565b810181811067ffffffffffffffff8211171562000dc45762000dc362000eaf565b5b80604052505050565b600062000dda8262000d0d565b91507fffffffffffffffffffffffffffffffffffffffffffffffffffffffffffffffff82141562000e105762000e0f62000e51565b5b600182019050919050565b600062000e288262000d17565b915067ffffffffffffffff82141562000e465762000e4562000e51565b5b600182019050919050565b7f4e487b7100000000000000000000000000000000000000000000000000000000600052601160045260246000fd5b7f4e487b7100000000000000000000000000000000000000000000000000000000600052602260045260246000fd5b7f4e487b7100000000000000000000000000000000000000000000000000000000600052604160045260246000fd5b6000601f19601f8301169050919050565b7f6572726f725f626164547261636b657244617461000000000000000000000000600082015250565b7f6f6e6c794f776e65720000000000000000000000000000000000000000000000600082015250565b62000f4c8162000ccd565b811462000f5857600080fd5b50565b62000f668162000ce1565b811462000f7257600080fd5b50565b612dbe8062000f856000396000f3fe608060405234801561001057600080fd5b50600436106101375760003560e01c806399e68eea116100b8578063b2b99ec91161007c578063b2b99ec914610328578063bfdf086614610344578063e29581aa14610362578063e30c397814610380578063e670c15d1461039e578063f2fde38b146103a857610137565b806399e68eea1461025e5780639b19251a1461027a5780639d209048146102aa578063a5ee5b41146102da578063ae5b4961146102f857610137565b80635668c8fb116100ff5780635668c8fb146101ce5780635888799c146101ea5780635d8f7f2a146102065780636da49b83146102225780638da5cb5b1461024057610137565b8063189a5a171461013c57806320a59a031461016e5780632af575801461018a57806346c198f6146101a65780634e71e0c8146101c4575b600080fd5b61015660048036038101906101519190612326565b6103c4565b6040516101659392919061287b565b60405180910390f35b610188600480360381019061018391906123a3565b61052a565b005b6101a4600480360381019061019f9190612326565b610604565b005b6101ae610766565b6040516101bb9190612746565b60405180910390f35b6101cc61078c565b005b6101e860048036038101906101e39190612326565b61095e565b005b61020460048036038101906101ff9190612326565b610a01565b005b610220600480360381019061021b919061234f565b610b63565b005b61022a610bff565b60405161023791906128d4565b60405180910390f35b610248610c19565b6040516102559190612746565b60405180910390f35b610278600480360381019061027391906123cc565b610c3d565b005b610294600480360381019061028f9190612326565b610d61565b6040516102a1919061279e565b60405180910390f35b6102c460048036038101906102bf9190612326565b610d81565b6040516102d19190612859565b60405180910390f35b6102e2610ed5565b6040516102ef9190612783565b60405180910390f35b610312600480360381019061030d919061240d565b610ee8565b60405161031f9190612859565b60405180910390f35b610342600480360381019061033d9190612326565b611150565b005b61034c6111ea565b6040516103599190612746565b60405180910390f35b61036a611210565b6040516103779190612761565b60405180910390f35b6103886114ce565b6040516103959190612746565b60405180910390f35b6103a66114f4565b005b6103c260048036038101906103bd9190612326565b6114ff565b005b6004602052806000526040600020600091509050806000016040518060600160405290816000820160009054906101000a900473ffffffffffffffffffffffffffffffffffffffff1673ffffffffffffffffffffffffffffffffffffffff1673ffffffffffffffffffffffffffffffffffffffff16815260200160018201805461044d90612ab8565b80601f016020809104026020016040519081016040528092919081815260200182805461047990612ab8565b80156104c65780601f1061049b576101008083540402835291602001916104c6565b820191906000526020600020905b8154815290600101906020018083116104a957829003601f168201915b50505050508152602001600282015481525050908060030160009054906101000a900473ffffffffffffffffffffffffffffffffffffffff16908060040160009054906101000a900473ffffffffffffffffffffffffffffffffffffffff16905083565b60008054906101000a900473ffffffffffffffffffffffffffffffffffffffff1673ffffffffffffffffffffffffffffffffffffffff163373ffffffffffffffffffffffffffffffffffffffff16146105b8576040517f08c379a00000000000000000000000000000000000000000000000000000000081526004016105af90612819565b60405180910390fd5b80600360146101000a81548160ff0219169083151502179055508015157f7623db9c426686f05cec977c4cadb8ff9657502540ca665ae347731114dac69d60405160405180910390a250565b60008054906101000a900473ffffffffffffffffffffffffffffffffffffffff1673ffffffffffffffffffffffffffffffffffffffff163373ffffffffffffffffffffffffffffffffffffffff1614610692576040517f08c379a000000000000000000000000000000000000000000000000000000000815260040161068990612819565b60405180910390fd5b6002600560008373ffffffffffffffffffffffffffffffffffffffff1673ffffffffffffffffffffffffffffffffffffffff16815260200190815260200160002060006101000a81548160ff0219169083600281111561071b577f4e487b7100000000000000000000000000000000000000000000000000000000600052602160045260246000fd5b02179055508073ffffffffffffffffffffffffffffffffffffffff167fbbe2a784aa6240d8175fa65a8459058efd8f44c5ab66caa2525fe9d63421087860405160405180910390a250565b600360009054906101000a900473ffffffffffffffffffffffffffffffffffffffff1681565b600160009054906101000a900473ffffffffffffffffffffffffffffffffffffffff1673ffffffffffffffffffffffffffffffffffffffff163373ffffffffffffffffffffffffffffffffffffffff161461081c576040517f08c379a0000000000000000000000000000000000000000000000000000000008152600401610813906127f9565b60405180910390fd5b600160009054906101000a900473ffffffffffffffffffffffffffffffffffffffff1673ffffffffffffffffffffffffffffffffffffffff1660008054906101000a900473ffffffffffffffffffffffffffffffffffffffff1673ffffffffffffffffffffffffffffffffffffffff167f8be0079c531659141344cd1fd0a4f28419497f9722a3daafe3b4186f6b6457e060405160405180910390a3600160009054906101000a900473ffffffffffffffffffffffffffffffffffffffff166000806101000a81548173ffffffffffffffffffffffffffffffffffffffff021916908373ffffffffffffffffffffffffffffffffffffffff1602179055506000600160006101000a81548173ffffffffffffffffffffffffffffffffffffffff021916908373ffffffffffffffffffffffffffffffffffffffff160217905550565b60008054906101000a900473ffffffffffffffffffffffffffffffffffffffff1673ffffffffffffffffffffffffffffffffffffffff163373ffffffffffffffffffffffffffffffffffffffff16146109ec576040517f08c379a00000000000000000000000000000000000000000000000000000000081526004016109e390612819565b60405180910390fd5b6109f581610604565b6109fe81611150565b50565b60008054906101000a900473ffffffffffffffffffffffffffffffffffffffff1673ffffffffffffffffffffffffffffffffffffffff163373ffffffffffffffffffffffffffffffffffffffff1614610a8f576040517f08c379a0000000000000000000000000000000000000000000000000000000008152600401610a8690612819565b60405180910390fd5b6001600560008373ffffffffffffffffffffffffffffffffffffffff1673ffffffffffffffffffffffffffffffffffffffff16815260200190815260200160002060006101000a81548160ff02191690836002811115610b18577f4e487b7100000000000000000000000000000000000000000000000000000000600052602160045260246000fd5b02179055508073ffffffffffffffffffffffffffffffffffffffff167fdfe83f699699403a4b116b6f9504680228c3f319bbf5ab26b48a81d3005d98b260405160405180910390a250565b60008054906101000a900473ffffffffffffffffffffffffffffffffffffffff1673ffffffffffffffffffffffffffffffffffffffff163373ffffffffffffffffffffffffffffffffffffffff1614610bf1576040517f08c379a0000000000000000000000000000000000000000000000000000000008152600401610be890612819565b60405180910390fd5b610bfb82826115d1565b5050565b600160149054906101000a900467ffffffffffffffff1681565b60008054906101000a900473ffffffffffffffffffffffffffffffffffffffff1681565b600360149054906101000a900460ff161580610d15575060016002811115610c8e577f4e487b7100000000000000000000000000000000000000000000000000000000600052602160045260246000fd5b600560003373ffffffffffffffffffffffffffffffffffffffff1673ffffffffffffffffffffffffffffffffffffffff16815260200190815260200160002060009054906101000a900460ff166002811115610d13577f4e487b7100000000000000000000000000000000000000000000000000000000600052602160045260246000fd5b145b610d54576040517f08c379a0000000000000000000000000000000000000000000000000000000008152600401610d4b90612839565b60405180910390fd5b610d5e33826115d1565b50565b60056020528060005260406000206000915054906101000a900460ff1681565b610d89612165565b6000600460008473ffffffffffffffffffffffffffffffffffffffff1673ffffffffffffffffffffffffffffffffffffffff1681526020019081526020016000209050806000016040518060600160405290816000820160009054906101000a900473ffffffffffffffffffffffffffffffffffffffff1673ffffffffffffffffffffffffffffffffffffffff1673ffffffffffffffffffffffffffffffffffffffff168152602001600182018054610e4190612ab8565b80601f0160208091040260200160405190810160405280929190818152602001828054610e6d90612ab8565b8015610eba5780601f10610e8f57610100808354040283529160200191610eba565b820191906000526020600020905b815481529060010190602001808311610e9d57829003601f168201915b50505050508152602001600282015481525050915050919050565b600360149054906101000a900460ff1681565b610ef0612165565b600160149054906101000a900467ffffffffffffffff1667ffffffffffffffff168210610f52576040517f08c379a0000000000000000000000000000000000000000000000000000000008152600401610f49906127b9565b60405180910390fd5b6000600360009054906101000a900473ffffffffffffffffffffffffffffffffffffffff1690506000600460008373ffffffffffffffffffffffffffffffffffffffff1673ffffffffffffffffffffffffffffffffffffffff16815260200190815260200160002090506000600190505b848111611045578160030160009054906101000a900473ffffffffffffffffffffffffffffffffffffffff169250600460008473ffffffffffffffffffffffffffffffffffffffff1673ffffffffffffffffffffffffffffffffffffffff1681526020019081526020016000209150808061103d90612b1b565b915050610fc3565b50806000016040518060600160405290816000820160009054906101000a900473ffffffffffffffffffffffffffffffffffffffff1673ffffffffffffffffffffffffffffffffffffffff1673ffffffffffffffffffffffffffffffffffffffff1681526020016001820180546110bb90612ab8565b80601f01602080910402602001604051908101604052809291908181526020018280546110e790612ab8565b80156111345780601f1061110957610100808354040283529160200191611134565b820191906000526020600020905b81548152906001019060200180831161111757829003601f168201915b5050505050815260200160028201548152505092505050919050565b60008054906101000a900473ffffffffffffffffffffffffffffffffffffffff1673ffffffffffffffffffffffffffffffffffffffff163373ffffffffffffffffffffffffffffffffffffffff16146111de576040517f08c379a00000000000000000000000000000000000000000000000000000000081526004016111d590612819565b60405180910390fd5b6111e781611ad9565b50565b600260009054906101000a900473ffffffffffffffffffffffffffffffffffffffff1681565b60606000600160149054906101000a900467ffffffffffffffff1667ffffffffffffffff1667ffffffffffffffff811115611274577f4e487b7100000000000000000000000000000000000000000000000000000000600052604160045260246000fd5b6040519080825280602002602001820160405280156112ad57816020015b61129a612165565b8152602001906001900390816112925790505b5090506000600360009054906101000a900473ffffffffffffffffffffffffffffffffffffffff16905060005b600160149054906101000a900467ffffffffffffffff1667ffffffffffffffff168110156114c5576000600460008473ffffffffffffffffffffffffffffffffffffffff1673ffffffffffffffffffffffffffffffffffffffff1681526020019081526020016000209050806000016040518060600160405290816000820160009054906101000a900473ffffffffffffffffffffffffffffffffffffffff1673ffffffffffffffffffffffffffffffffffffffff1673ffffffffffffffffffffffffffffffffffffffff1681526020016001820180546113ba90612ab8565b80601f01602080910402602001604051908101604052809291908181526020018280546113e690612ab8565b80156114335780601f1061140857610100808354040283529160200191611433565b820191906000526020600020905b81548152906001019060200180831161141657829003601f168201915b5050505050815260200160028201548152505084838151811061147f577f4e487b7100000000000000000000000000000000000000000000000000000000600052603260045260246000fd5b60200260200101819052508060030160009054906101000a900473ffffffffffffffffffffffffffffffffffffffff1692505080806114bd90612b1b565b9150506112da565b50819250505090565b600160009054906101000a900473ffffffffffffffffffffffffffffffffffffffff1681565b6114fd33611ad9565b565b60008054906101000a900473ffffffffffffffffffffffffffffffffffffffff1673ffffffffffffffffffffffffffffffffffffffff163373ffffffffffffffffffffffffffffffffffffffff161461158d576040517f08c379a000000000000000000000000000000000000000000000000000000000815260040161158490612819565b60405180910390fd5b80600160006101000a81548173ffffffffffffffffffffffffffffffffffffffff021916908373ffffffffffffffffffffffffffffffffffffffff16021790555050565b6000600460008473ffffffffffffffffffffffffffffffffffffffff1673ffffffffffffffffffffffffffffffffffffffff168152602001908152602001600020905060008082600001600201541415611a385760019050604051806060016040528060405180606001604052808773ffffffffffffffffffffffffffffffffffffffff168152602001868152602001428152508152602001600073ffffffffffffffffffffffffffffffffffffffff168152602001600260009054906101000a900473ffffffffffffffffffffffffffffffffffffffff1673ffffffffffffffffffffffffffffffffffffffff16815250600460008673ffffffffffffffffffffffffffffffffffffffff1673ffffffffffffffffffffffffffffffffffffffff16815260200190815260200160002060008201518160000160008201518160000160006101000a81548173ffffffffffffffffffffffffffffffffffffffff021916908373ffffffffffffffffffffffffffffffffffffffff160217905550602082015181600101908051906020019061176e92919061219c565b5060408201518160020155505060208201518160030160006101000a81548173ffffffffffffffffffffffffffffffffffffffff021916908373ffffffffffffffffffffffffffffffffffffffff16021790555060408201518160040160006101000a81548173ffffffffffffffffffffffffffffffffffffffff021916908373ffffffffffffffffffffffffffffffffffffffff1602179055509050506001601481819054906101000a900467ffffffffffffffff168092919061183290612b64565b91906101000a81548167ffffffffffffffff021916908367ffffffffffffffff16021790555050600073ffffffffffffffffffffffffffffffffffffffff16600260009054906101000a900473ffffffffffffffffffffffffffffffffffffffff1673ffffffffffffffffffffffffffffffffffffffff161461195957600060046000600260009054906101000a900473ffffffffffffffffffffffffffffffffffffffff1673ffffffffffffffffffffffffffffffffffffffff1673ffffffffffffffffffffffffffffffffffffffff1681526020019081526020016000209050848160030160006101000a81548173ffffffffffffffffffffffffffffffffffffffff021916908373ffffffffffffffffffffffffffffffffffffffff160217905550505b600073ffffffffffffffffffffffffffffffffffffffff16600360009054906101000a900473ffffffffffffffffffffffffffffffffffffffff1673ffffffffffffffffffffffffffffffffffffffff1614156119f25783600360006101000a81548173ffffffffffffffffffffffffffffffffffffffff021916908373ffffffffffffffffffffffffffffffffffffffff1602179055505b83600260006101000a81548173ffffffffffffffffffffffffffffffffffffffff021916908373ffffffffffffffffffffffffffffffffffffffff160217905550611a61565b82826000016001019080519060200190611a5392919061219c565b504282600001600201819055505b8082600001600101604051611a76919061272f565b60405180910390208573ffffffffffffffffffffffffffffffffffffffff167f7b8ea65757bf0d882563917834f76c4df069ea7e489c9fc65bf764289792e3348560000160020154604051611acb91906128b9565b60405180910390a450505050565b6000600460008373ffffffffffffffffffffffffffffffffffffffff1673ffffffffffffffffffffffffffffffffffffffff1681526020019081526020016000209050600081600001600201541415611b67576040517f08c379a0000000000000000000000000000000000000000000000000000000008152600401611b5e906127d9565b60405180910390fd5b600073ffffffffffffffffffffffffffffffffffffffff168160040160009054906101000a900473ffffffffffffffffffffffffffffffffffffffff1673ffffffffffffffffffffffffffffffffffffffff1614611c8f576000600460008360040160009054906101000a900473ffffffffffffffffffffffffffffffffffffffff1673ffffffffffffffffffffffffffffffffffffffff1673ffffffffffffffffffffffffffffffffffffffff16815260200190815260200160002090508160030160009054906101000a900473ffffffffffffffffffffffffffffffffffffffff168160030160006101000a81548173ffffffffffffffffffffffffffffffffffffffff021916908373ffffffffffffffffffffffffffffffffffffffff160217905550505b600073ffffffffffffffffffffffffffffffffffffffff168160030160009054906101000a900473ffffffffffffffffffffffffffffffffffffffff1673ffffffffffffffffffffffffffffffffffffffff1614611db7576000600460008360030160009054906101000a900473ffffffffffffffffffffffffffffffffffffffff1673ffffffffffffffffffffffffffffffffffffffff1673ffffffffffffffffffffffffffffffffffffffff16815260200190815260200160002090508160040160009054906101000a900473ffffffffffffffffffffffffffffffffffffffff168160040160006101000a81548173ffffffffffffffffffffffffffffffffffffffff021916908373ffffffffffffffffffffffffffffffffffffffff160217905550505b6001601481819054906101000a900467ffffffffffffffff1680929190611ddd90612a8e565b91906101000a81548167ffffffffffffffff021916908367ffffffffffffffff16021790555050600260009054906101000a900473ffffffffffffffffffffffffffffffffffffffff1673ffffffffffffffffffffffffffffffffffffffff168273ffffffffffffffffffffffffffffffffffffffff161415611f2657600060046000600260009054906101000a900473ffffffffffffffffffffffffffffffffffffffff1673ffffffffffffffffffffffffffffffffffffffff1673ffffffffffffffffffffffffffffffffffffffff16815260200190815260200160002090508060040160009054906101000a900473ffffffffffffffffffffffffffffffffffffffff16600260006101000a81548173ffffffffffffffffffffffffffffffffffffffff021916908373ffffffffffffffffffffffffffffffffffffffff160217905550505b600360009054906101000a900473ffffffffffffffffffffffffffffffffffffffff1673ffffffffffffffffffffffffffffffffffffffff168273ffffffffffffffffffffffffffffffffffffffff16141561204857600060046000600360009054906101000a900473ffffffffffffffffffffffffffffffffffffffff1673ffffffffffffffffffffffffffffffffffffffff1673ffffffffffffffffffffffffffffffffffffffff16815260200190815260200160002090508060030160009054906101000a900473ffffffffffffffffffffffffffffffffffffffff16600360006101000a81548173ffffffffffffffffffffffffffffffffffffffff021916908373ffffffffffffffffffffffffffffffffffffffff160217905550505b600460008373ffffffffffffffffffffffffffffffffffffffff1673ffffffffffffffffffffffffffffffffffffffff1681526020019081526020016000206000808201600080820160006101000a81549073ffffffffffffffffffffffffffffffffffffffff02191690556001820160006120c49190612222565b600282016000905550506003820160006101000a81549073ffffffffffffffffffffffffffffffffffffffff02191690556004820160006101000a81549073ffffffffffffffffffffffffffffffffffffffff021916905550508173ffffffffffffffffffffffffffffffffffffffff167fcfc24166db4bb677e857cacabd1541fb2b30645021b27c5130419589b84db52b60405160405180910390a25050565b6040518060600160405280600073ffffffffffffffffffffffffffffffffffffffff16815260200160608152602001600081525090565b8280546121a890612ab8565b90600052602060002090601f0160209004810192826121ca5760008555612211565b82601f106121e357805160ff1916838001178555612211565b82800160010185558215612211579182015b828111156122105782518255916020019190600101906121f5565b5b50905061221e9190612262565b5090565b50805461222e90612ab8565b6000825580601f10612240575061225f565b601f01602090049060005260206000209081019061225e9190612262565b5b50565b5b8082111561227b576000816000905550600101612263565b5090565b600061229261228d84612914565b6128ef565b9050828152602081018484840111156122aa57600080fd5b6122b5848285612a4c565b509392505050565b6000813590506122cc81612d43565b92915050565b6000813590506122e181612d5a565b92915050565b600082601f8301126122f857600080fd5b813561230884826020860161227f565b91505092915050565b60008135905061232081612d71565b92915050565b60006020828403121561233857600080fd5b6000612346848285016122bd565b91505092915050565b6000806040838503121561236257600080fd5b6000612370858286016122bd565b925050602083013567ffffffffffffffff81111561238d57600080fd5b612399858286016122e7565b9150509250929050565b6000602082840312156123b557600080fd5b60006123c3848285016122d2565b91505092915050565b6000602082840312156123de57600080fd5b600082013567ffffffffffffffff8111156123f857600080fd5b612404848285016122e7565b91505092915050565b60006020828403121561241f57600080fd5b600061242d84828501612311565b91505092915050565b60006124428383612662565b905092915050565b612453816129cb565b82525050565b612462816129cb565b82525050565b60006124738261296a565b61247d818561298d565b93508360208202850161248f85612945565b8060005b858110156124cb57848403895281516124ac8582612436565b94506124b783612980565b925060208a01995050600181019050612493565b50829750879550505050505092915050565b6124e6816129dd565b82525050565b6124f581612a3a565b82525050565b600061250682612975565b612510818561299e565b9350612520818560208601612a5b565b61252981612c51565b840191505092915050565b6000815461254181612ab8565b61254b81866129c0565b945060018216600081146125665760018114612577576125aa565b60ff198316865281860193506125aa565b61258085612955565b60005b838110156125a257815481890152600182019150602081019050612583565b838801955050505b50505092915050565b60006125c06016836129af565b91506125cb82612c62565b602082019050919050565b60006125e3600e836129af565b91506125ee82612c8b565b602082019050919050565b60006126066010836129af565b915061261182612cb4565b602082019050919050565b60006126296009836129af565b915061263482612cdd565b602082019050919050565b600061264c6011836129af565b915061265782612d06565b602082019050919050565b600060608301600083015161267a600086018261244a565b506020830151848203602086015261269282826124fb565b91505060408301516126a76040860182612702565b508091505092915050565b60006060830160008301516126ca600086018261244a565b50602083015184820360208601526126e282826124fb565b91505060408301516126f76040860182612702565b508091505092915050565b61270b81612a1c565b82525050565b61271a81612a1c565b82525050565b61272981612a26565b82525050565b600061273b8284612534565b915081905092915050565b600060208201905061275b6000830184612459565b92915050565b6000602082019050818103600083015261277b8184612468565b905092915050565b600060208201905061279860008301846124dd565b92915050565b60006020820190506127b360008301846124ec565b92915050565b600060208201905081810360008301526127d2816125b3565b9050919050565b600060208201905081810360008301526127f2816125d6565b9050919050565b60006020820190508181036000830152612812816125f9565b9050919050565b600060208201905081810360008301526128328161261c565b9050919050565b600060208201905081810360008301526128528161263f565b9050919050565b6000602082019050818103600083015261287381846126b2565b905092915050565b6000606082019050818103600083015261289581866126b2565b90506128a46020830185612459565b6128b16040830184612459565b949350505050565b60006020820190506128ce6000830184612711565b92915050565b60006020820190506128e96000830184612720565b92915050565b60006128f961290a565b90506129058282612aea565b919050565b6000604051905090565b600067ffffffffffffffff82111561292f5761292e612c22565b5b61293882612c51565b9050602081019050919050565b6000819050602082019050919050565b60008190508160005260206000209050919050565b600081519050919050565b600081519050919050565b6000602082019050919050565b600082825260208201905092915050565b600082825260208201905092915050565b600082825260208201905092915050565b600081905092915050565b60006129d6826129fc565b9050919050565b60008115159050919050565b60008190506129f782612d2f565b919050565b600073ffffffffffffffffffffffffffffffffffffffff82169050919050565b6000819050919050565b600067ffffffffffffffff82169050919050565b6000612a45826129e9565b9050919050565b82818337600083830152505050565b60005b83811015612a79578082015181840152602081019050612a5e565b83811115612a88576000848401525b50505050565b6000612a9982612a26565b91506000821415612aad57612aac612b95565b5b600182039050919050565b60006002820490506001821680612ad057607f821691505b60208210811415612ae457612ae3612bf3565b5b50919050565b612af382612c51565b810181811067ffffffffffffffff82111715612b1257612b11612c22565b5b80604052505050565b6000612b2682612a1c565b91507fffffffffffffffffffffffffffffffffffffffffffffffffffffffffffffffff821415612b5957612b58612b95565b5b600182019050919050565b6000612b6f82612a26565b915067ffffffffffffffff821415612b8a57612b89612b95565b5b600182019050919050565b7f4e487b7100000000000000000000000000000000000000000000000000000000600052601160045260246000fd5b7f4e487b7100000000000000000000000000000000000000000000000000000000600052602160045260246000fd5b7f4e487b7100000000000000000000000000000000000000000000000000000000600052602260045260246000fd5b7f4e487b7100000000000000000000000000000000000000000000000000000000600052604160045260246000fd5b6000601f19601f8301169050919050565b7f6572726f725f696e6465784f75744f66426f756e647300000000000000000000600082015250565b7f6572726f725f6e6f74466f756e64000000000000000000000000000000000000600082015250565b7f6f6e6c7950656e64696e674f776e657200000000000000000000000000000000600082015250565b7f6f6e6c794f776e65720000000000000000000000000000000000000000000000600082015250565b7f6572726f725f6e6f74417070726f766564000000000000000000000000000000600082015250565b60038110612d4057612d3f612bc4565b5b50565b612d4c816129cb565b8114612d5757600080fd5b50565b612d63816129dd565b8114612d6e57600080fd5b50565b612d7a81612a1c565b8114612d8557600080fd5b5056fea264697066735822122043d1cd1eb912bfcd099629937df3d15587032e48b1feab86dd060c3b6d84f73f64736f6c63430008030033",
  "linkReferences": {},
  "deployedLinkReferences": {}
}