{
  "contractName": "DataunionVault",
  "abi": [
    {
      "inputs": [
        {
          "internalType": "address",
          "name": "operator",
          "type": "address"
        },
        {
          "internalType": "string",
          "name": "joinPartStreamId",
          "type": "string"
        },
        {
          "internalType": "address",
          "name": "tokenAddress",
          "type": "address"
        },
        {
          "internalType": "uint256",
          "name": "blockFreezePeriodSeconds",
          "type": "uint256"
        },
        {
          "internalType": "uint256",
          "name": "adminFeeFraction",
          "type": "uint256"
        }
      ],
      "payable": false,
      "stateMutability": "nonpayable",
      "type": "constructor"
    },
    {
      "anonymous": false,
      "inputs": [
        {
          "indexed": false,
          "internalType": "uint256",
          "name": "adminFee",
          "type": "uint256"
        }
      ],
      "name": "AdminFeeChanged",
      "type": "event"
    },
    {
      "anonymous": false,
      "inputs": [
        {
          "indexed": false,
          "internalType": "uint256",
          "name": "blockNumber",
          "type": "uint256"
        },
        {
          "indexed": false,
          "internalType": "bytes32",
          "name": "rootHash",
          "type": "bytes32"
        },
        {
          "indexed": false,
          "internalType": "string",
          "name": "ipfsHash",
          "type": "string"
        }
      ],
      "name": "NewCommit",
      "type": "event"
    },
    {
      "anonymous": false,
      "inputs": [
        {
          "indexed": true,
          "internalType": "address",
          "name": "newOperator",
          "type": "address"
        }
      ],
      "name": "OperatorChanged",
      "type": "event"
    },
    {
      "anonymous": false,
      "inputs": [
        {
          "indexed": true,
          "internalType": "address",
          "name": "previousOwner",
          "type": "address"
        },
        {
          "indexed": true,
          "internalType": "address",
          "name": "newOwner",
          "type": "address"
        }
      ],
      "name": "OwnershipTransferred",
      "type": "event"
    },
    {
      "constant": true,
      "inputs": [],
      "name": "adminFee",
      "outputs": [
        {
          "internalType": "uint256",
          "name": "",
          "type": "uint256"
        }
      ],
      "payable": false,
      "stateMutability": "view",
      "type": "function"
    },
    {
      "constant": true,
      "inputs": [],
      "name": "blockFreezeSeconds",
      "outputs": [
        {
          "internalType": "uint256",
          "name": "",
          "type": "uint256"
        }
      ],
      "payable": false,
      "stateMutability": "view",
      "type": "function"
    },
    {
      "constant": true,
      "inputs": [
        {
          "internalType": "uint256",
          "name": "",
          "type": "uint256"
        }
      ],
      "name": "blockTimestamp",
      "outputs": [
        {
          "internalType": "uint256",
          "name": "",
          "type": "uint256"
        }
      ],
      "payable": false,
      "stateMutability": "view",
      "type": "function"
    },
    {
      "constant": true,
      "inputs": [
        {
          "internalType": "bytes32",
          "name": "leafHash",
          "type": "bytes32"
        },
        {
          "internalType": "bytes32[]",
          "name": "others",
          "type": "bytes32[]"
        }
      ],
      "name": "calculateRootHash",
      "outputs": [
        {
          "internalType": "bytes32",
          "name": "root",
          "type": "bytes32"
        }
      ],
      "payable": false,
      "stateMutability": "pure",
      "type": "function"
    },
    {
      "constant": false,
      "inputs": [],
      "name": "claimOwnership",
      "outputs": [],
      "payable": false,
      "stateMutability": "nonpayable",
      "type": "function"
    },
    {
      "constant": false,
      "inputs": [
        {
          "internalType": "uint256",
          "name": "blockNumber",
          "type": "uint256"
        },
        {
          "internalType": "bytes32",
          "name": "rootHash",
          "type": "bytes32"
        },
        {
          "internalType": "string",
          "name": "ipfsHash",
          "type": "string"
        }
      ],
      "name": "commit",
      "outputs": [],
      "payable": false,
      "stateMutability": "nonpayable",
      "type": "function"
    },
    {
      "constant": true,
      "inputs": [
        {
          "internalType": "uint256",
          "name": "",
          "type": "uint256"
        }
      ],
      "name": "committedHash",
      "outputs": [
        {
          "internalType": "bytes32",
          "name": "",
          "type": "bytes32"
        }
      ],
      "payable": false,
      "stateMutability": "view",
      "type": "function"
    },
    {
      "constant": true,
      "inputs": [
        {
          "internalType": "address",
          "name": "",
          "type": "address"
        }
      ],
      "name": "earnings",
      "outputs": [
        {
          "internalType": "uint256",
          "name": "",
          "type": "uint256"
        }
      ],
      "payable": false,
      "stateMutability": "view",
      "type": "function"
    },
    {
      "constant": true,
      "inputs": [],
      "name": "joinPartStream",
      "outputs": [
        {
          "internalType": "string",
          "name": "",
          "type": "string"
        }
      ],
      "payable": false,
      "stateMutability": "view",
      "type": "function"
    },
    {
      "constant": true,
      "inputs": [],
      "name": "operator",
      "outputs": [
        {
          "internalType": "address",
          "name": "",
          "type": "address"
        }
      ],
      "payable": false,
      "stateMutability": "view",
      "type": "function"
    },
    {
      "constant": true,
      "inputs": [],
      "name": "owner",
      "outputs": [
        {
          "internalType": "address",
          "name": "",
          "type": "address"
        }
      ],
      "payable": false,
      "stateMutability": "view",
      "type": "function"
    },
    {
      "constant": true,
      "inputs": [],
      "name": "pendingOwner",
      "outputs": [
        {
          "internalType": "address",
          "name": "",
          "type": "address"
        }
      ],
      "payable": false,
      "stateMutability": "view",
      "type": "function"
    },
    {
      "constant": true,
      "inputs": [
        {
          "internalType": "uint256",
          "name": "blockNumber",
          "type": "uint256"
        },
        {
          "internalType": "address",
          "name": "account",
          "type": "address"
        },
        {
          "internalType": "uint256",
          "name": "balance",
          "type": "uint256"
        },
        {
          "internalType": "bytes32[]",
          "name": "proof",
          "type": "bytes32[]"
        }
      ],
      "name": "proofIsCorrect",
      "outputs": [
        {
          "internalType": "bool",
          "name": "",
          "type": "bool"
        }
      ],
      "payable": false,
      "stateMutability": "view",
      "type": "function"
    },
    {
      "constant": false,
      "inputs": [
        {
          "internalType": "uint256",
          "name": "blockNumber",
          "type": "uint256"
        },
        {
          "internalType": "address",
          "name": "account",
          "type": "address"
        },
        {
          "internalType": "uint256",
          "name": "balance",
          "type": "uint256"
        },
        {
          "internalType": "bytes32[]",
          "name": "proof",
          "type": "bytes32[]"
        }
      ],
      "name": "prove",
      "outputs": [],
      "payable": false,
      "stateMutability": "nonpayable",
      "type": "function"
    },
    {
      "constant": false,
      "inputs": [
        {
          "internalType": "address",
          "name": "recipient",
          "type": "address"
        },
        {
          "internalType": "address",
          "name": "signer",
          "type": "address"
        },
        {
          "internalType": "uint256",
          "name": "amount",
          "type": "uint256"
        },
        {
          "internalType": "bytes",
          "name": "signature",
          "type": "bytes"
        },
        {
          "internalType": "uint256",
          "name": "blockNumber",
          "type": "uint256"
        },
        {
          "internalType": "uint256",
          "name": "totalEarnings",
          "type": "uint256"
        },
        {
          "internalType": "bytes32[]",
          "name": "proof",
          "type": "bytes32[]"
        }
      ],
      "name": "proveAndWithdrawToSigned",
      "outputs": [],
      "payable": false,
      "stateMutability": "nonpayable",
      "type": "function"
    },
    {
      "constant": false,
      "inputs": [
        {
          "internalType": "uint256",
          "name": "newAdminFee",
          "type": "uint256"
        }
      ],
      "name": "setAdminFee",
      "outputs": [],
      "payable": false,
      "stateMutability": "nonpayable",
      "type": "function"
    },
    {
      "constant": false,
      "inputs": [
        {
          "internalType": "address",
          "name": "newOperator",
          "type": "address"
        }
      ],
      "name": "setOperator",
      "outputs": [],
      "payable": false,
      "stateMutability": "nonpayable",
      "type": "function"
    },
    {
      "constant": true,
      "inputs": [
        {
          "internalType": "address",
          "name": "recipient",
          "type": "address"
        },
        {
          "internalType": "address",
          "name": "signer",
          "type": "address"
        },
        {
          "internalType": "uint256",
          "name": "amount",
          "type": "uint256"
        },
        {
          "internalType": "bytes",
          "name": "signature",
          "type": "bytes"
        }
      ],
      "name": "signatureIsValid",
      "outputs": [
        {
          "internalType": "bool",
          "name": "isValid",
          "type": "bool"
        }
      ],
      "payable": false,
      "stateMutability": "view",
      "type": "function"
    },
    {
      "constant": true,
      "inputs": [],
      "name": "token",
      "outputs": [
        {
          "internalType": "contract IERC20",
          "name": "",
          "type": "address"
        }
      ],
      "payable": false,
      "stateMutability": "view",
      "type": "function"
    },
    {
      "constant": true,
      "inputs": [],
      "name": "totalProven",
      "outputs": [
        {
          "internalType": "uint256",
          "name": "",
          "type": "uint256"
        }
      ],
      "payable": false,
      "stateMutability": "view",
      "type": "function"
    },
    {
      "constant": true,
      "inputs": [],
      "name": "totalWithdrawn",
      "outputs": [
        {
          "internalType": "uint256",
          "name": "",
          "type": "uint256"
        }
      ],
      "payable": false,
      "stateMutability": "view",
      "type": "function"
    },
    {
      "constant": false,
      "inputs": [
        {
          "internalType": "address",
          "name": "newOwner",
          "type": "address"
        }
      ],
      "name": "transferOwnership",
      "outputs": [],
      "payable": false,
      "stateMutability": "nonpayable",
      "type": "function"
    },
    {
      "constant": true,
      "inputs": [],
      "name": "version",
      "outputs": [
        {
          "internalType": "uint256",
          "name": "",
          "type": "uint256"
        }
      ],
      "payable": false,
      "stateMutability": "view",
      "type": "function"
    },
    {
      "constant": false,
      "inputs": [
        {
          "internalType": "uint256",
          "name": "amount",
          "type": "uint256"
        }
      ],
      "name": "withdraw",
      "outputs": [],
      "payable": false,
      "stateMutability": "nonpayable",
      "type": "function"
    },
    {
      "constant": false,
      "inputs": [
        {
          "internalType": "uint256",
          "name": "blockNumber",
          "type": "uint256"
        },
        {
          "internalType": "uint256",
          "name": "totalEarnings",
          "type": "uint256"
        },
        {
          "internalType": "bytes32[]",
          "name": "proof",
          "type": "bytes32[]"
        }
      ],
      "name": "withdrawAll",
      "outputs": [],
      "payable": false,
      "stateMutability": "nonpayable",
      "type": "function"
    },
    {
      "constant": false,
      "inputs": [
        {
          "internalType": "address",
          "name": "recipient",
          "type": "address"
        },
        {
          "internalType": "uint256",
          "name": "blockNumber",
          "type": "uint256"
        },
        {
          "internalType": "uint256",
          "name": "totalEarnings",
          "type": "uint256"
        },
        {
          "internalType": "bytes32[]",
          "name": "proof",
          "type": "bytes32[]"
        }
      ],
      "name": "withdrawAllFor",
      "outputs": [],
      "payable": false,
      "stateMutability": "nonpayable",
      "type": "function"
    },
    {
      "constant": false,
      "inputs": [
        {
          "internalType": "address",
          "name": "recipient",
          "type": "address"
        },
        {
          "internalType": "uint256",
          "name": "blockNumber",
          "type": "uint256"
        },
        {
          "internalType": "uint256",
          "name": "totalEarnings",
          "type": "uint256"
        },
        {
          "internalType": "bytes32[]",
          "name": "proof",
          "type": "bytes32[]"
        }
      ],
      "name": "withdrawAllTo",
      "outputs": [],
      "payable": false,
      "stateMutability": "nonpayable",
      "type": "function"
    },
    {
      "constant": false,
      "inputs": [
        {
          "internalType": "address",
          "name": "recipient",
          "type": "address"
        },
        {
          "internalType": "address",
          "name": "signer",
          "type": "address"
        },
        {
          "internalType": "bytes",
          "name": "signature",
          "type": "bytes"
        },
        {
          "internalType": "uint256",
          "name": "blockNumber",
          "type": "uint256"
        },
        {
          "internalType": "uint256",
          "name": "totalEarnings",
          "type": "uint256"
        },
        {
          "internalType": "bytes32[]",
          "name": "proof",
          "type": "bytes32[]"
        }
      ],
      "name": "withdrawAllToSigned",
      "outputs": [],
      "payable": false,
      "stateMutability": "nonpayable",
      "type": "function"
    },
    {
      "constant": false,
      "inputs": [
        {
          "internalType": "address",
          "name": "recipient",
          "type": "address"
        },
        {
          "internalType": "uint256",
          "name": "amount",
          "type": "uint256"
        }
      ],
      "name": "withdrawFor",
      "outputs": [],
      "payable": false,
      "stateMutability": "nonpayable",
      "type": "function"
    },
    {
      "constant": false,
      "inputs": [
        {
          "internalType": "address",
          "name": "recipient",
          "type": "address"
        },
        {
          "internalType": "uint256",
          "name": "amount",
          "type": "uint256"
        }
      ],
      "name": "withdrawTo",
      "outputs": [],
      "payable": false,
      "stateMutability": "nonpayable",
      "type": "function"
    },
    {
      "constant": false,
      "inputs": [
        {
          "internalType": "address",
          "name": "recipient",
          "type": "address"
        },
        {
          "internalType": "address",
          "name": "signer",
          "type": "address"
        },
        {
          "internalType": "uint256",
          "name": "amount",
          "type": "uint256"
        },
        {
          "internalType": "bytes",
          "name": "signature",
          "type": "bytes"
        }
      ],
      "name": "withdrawToSigned",
      "outputs": [],
      "payable": false,
      "stateMutability": "nonpayable",
      "type": "function"
    },
    {
      "constant": true,
      "inputs": [
        {
          "internalType": "address",
          "name": "",
          "type": "address"
        }
      ],
      "name": "withdrawn",
      "outputs": [
        {
          "internalType": "uint256",
          "name": "",
          "type": "uint256"
        }
      ],
      "payable": false,
      "stateMutability": "view",
      "type": "function"
    }
  ],
  "bytecode": "0x60806040526001600d553480156200001657600080fd5b506040516200333838038062003338833981810160405260a08110156200003c57600080fd5b8101908080519060200190929190805160405193929190846401000000008211156200006757600080fd5b838201915060208201858111156200007e57600080fd5b82518660018202830111640100000000821117156200009c57600080fd5b8083526020830192505050908051906020019080838360005b83811015620000d2578082015181840152602081019050620000b5565b50505050905090810190601f168015620001005780820380516001836020036101000a031916815260200191505b5060405260200180519060200190929190805190602001909291908051906020019092919050505082828233600160006101000a81548173ffffffffffffffffffffffffffffffffffffffff021916908373ffffffffffffffffffffffffffffffffffffffff1602179055508160038190555082600760006101000a81548173ffffffffffffffffffffffffffffffffffffffff021916908373ffffffffffffffffffffffffffffffffffffffff16021790555033600560006101000a81548173ffffffffffffffffffffffffffffffffffffffff021916908373ffffffffffffffffffffffffffffffffffffffff16021790555062000206816200023e60201b60201c565b5050506200021a85620003c460201b60201c565b83600c9080519060200190620002329291906200050f565b505050505050620005be565b600160009054906101000a900473ffffffffffffffffffffffffffffffffffffffff1673ffffffffffffffffffffffffffffffffffffffff163373ffffffffffffffffffffffffffffffffffffffff161462000302576040517f08c379a000000000000000000000000000000000000000000000000000000000815260040180806020018281038252600f8152602001807f6572726f725f6f6e6c794f776e6572000000000000000000000000000000000081525060200191505060405180910390fd5b670de0b6b3a764000081111562000381576040517f08c379a000000000000000000000000000000000000000000000000000000000815260040180806020018281038252600e8152602001807f6572726f725f61646d696e46656500000000000000000000000000000000000081525060200191505060405180910390fd5b806006819055507f11a80b766155f9b8f16a7da44d66269fd694cb1c247f4814244586f68dd534876006546040518082815260200191505060405180910390a150565b600160009054906101000a900473ffffffffffffffffffffffffffffffffffffffff1673ffffffffffffffffffffffffffffffffffffffff163373ffffffffffffffffffffffffffffffffffffffff161462000488576040517f08c379a000000000000000000000000000000000000000000000000000000000815260040180806020018281038252600f8152602001807f6572726f725f6f6e6c794f776e6572000000000000000000000000000000000081525060200191505060405180910390fd5b80600560006101000a81548173ffffffffffffffffffffffffffffffffffffffff021916908373ffffffffffffffffffffffffffffffffffffffff1602179055508073ffffffffffffffffffffffffffffffffffffffff167f4721129e0e676ed6a92909bb24e853ccdd63ad72280cc2e974e38e480e0e6e5460405160405180910390a250565b828054600181600116156101000203166002900490600052602060002090601f016020900481019282601f106200055257805160ff191683800117855562000583565b8280016001018555821562000583579182015b828111156200058257825182559160200191906001019062000565565b5b50905062000592919062000596565b5090565b620005bb91905b80821115620005b75760008160009055506001016200059d565b5090565b90565b612d6a80620005ce6000396000f3fe608060405234801561001057600080fd5b50600436106101f05760003560e01c80638beb60b61161010f578063b74d784e116100a2578063e1a9888e11610071578063e1a9888e14610fc3578063e30c397814611005578063f2fde38b1461104f578063fc0c546a14611093576101f0565b8063b74d784e14610dc6578063c3ac610d14610de4578063cb9b51c814610e71578063db518db214610f75576101f0565b8063a2d3cf4b116100de578063a2d3cf4b14610a3e578063adc4c87414610b5b578063b3ab15fb14610c60578063b619d3bd14610ca4576101f0565b80638beb60b61461087c5780638da5cb5b146108aa578063a0b9d101146108f4578063a0be06f914610a20576101f0565b8063543fd313116101875780636dd4a7c9116101565780636dd4a7c9146106ee5780636ef61092146107c457806371b150131461081c57806373d8903b1461083a576101f0565b8063543fd3131461054257806354fd4d501461059a578063570ca735146105b85780636c7a9d2414610602576101f0565b80634942e4cf116101c35780634942e4cf1461040a5780634b319713146104975780634beb62b7146104b55780634e71e0c814610538576101f0565b8063205c2878146101f5578063270231cc146102435780632e1a7d4d146102f057806332ef2b241461031e575b600080fd5b6102416004803603604081101561020b57600080fd5b81019080803573ffffffffffffffffffffffffffffffffffffffff169060200190929190803590602001909291905050506110dd565b005b6102ee6004803603608081101561025957600080fd5b81019080803573ffffffffffffffffffffffffffffffffffffffff1690602001909291908035906020019092919080359060200190929190803590602001906401000000008111156102aa57600080fd5b8201836020820111156102bc57600080fd5b803590602001918460208302840111640100000000831117156102de57600080fd5b90919293919293905050506110ec565b005b61031c6004803603602081101561030657600080fd5b81019080803590602001909291905050506111a1565b005b6104086004803603608081101561033457600080fd5b8101908080359060200190929190803573ffffffffffffffffffffffffffffffffffffffff169060200190929190803590602001909291908035906020019064010000000081111561038557600080fd5b82018360208201111561039757600080fd5b803590602001918460208302840111640100000000831117156103b957600080fd5b919080806020026020016040519081016040528093929190818152602001838360200280828437600081840152601f19601f8201169050808301925050505050505091929192905050506111af565b005b6104956004803603606081101561042057600080fd5b8101908080359060200190929190803590602001909291908035906020019064010000000081111561045157600080fd5b82018360208201111561046357600080fd5b8035906020019184602083028401116401000000008311171561048557600080fd5b909192939192939050505061123e565b005b61049f611291565b6040518082815260200191505060405180910390f35b6104bd611297565b6040518080602001828103825283818151815260200191508051906020019080838360005b838110156104fd5780820151818401526020810190506104e2565b50505050905090810190601f16801561052a5780820380516001836020036101000a031916815260200191505b509250505060405180910390f35b610540611335565b005b6105846004803603602081101561055857600080fd5b81019080803573ffffffffffffffffffffffffffffffffffffffff16906020019092919050505061153d565b6040518082815260200191505060405180910390f35b6105a2611555565b6040518082815260200191505060405180910390f35b6105c061155b565b604051808273ffffffffffffffffffffffffffffffffffffffff1673ffffffffffffffffffffffffffffffffffffffff16815260200191505060405180910390f35b6106ec6004803603608081101561061857600080fd5b81019080803573ffffffffffffffffffffffffffffffffffffffff16906020019092919080359060200190929190803590602001909291908035906020019064010000000081111561066957600080fd5b82018360208201111561067b57600080fd5b8035906020019184602083028401116401000000008311171561069d57600080fd5b919080806020026020016040519081016040528093929190818152602001838360200280828437600081840152601f19601f820116905080830192505050505050509192919290505050611581565b005b6107ae6004803603604081101561070457600080fd5b81019080803590602001909291908035906020019064010000000081111561072b57600080fd5b82018360208201111561073d57600080fd5b8035906020019184602083028401116401000000008311171561075f57600080fd5b919080806020026020016040519081016040528093929190818152602001838360200280828437600081840152601f19601f8201169050808301925050505050505091929192905050506115f4565b6040518082815260200191505060405180910390f35b610806600480360360208110156107da57600080fd5b81019080803573ffffffffffffffffffffffffffffffffffffffff1690602001909291905050506116ab565b6040518082815260200191505060405180910390f35b6108246116c3565b6040518082815260200191505060405180910390f35b6108666004803603602081101561085057600080fd5b81019080803590602001909291905050506116c9565b6040518082815260200191505060405180910390f35b6108a86004803603602081101561089257600080fd5b81019080803590602001909291905050506116e1565b005b6108b2611865565b604051808273ffffffffffffffffffffffffffffffffffffffff1673ffffffffffffffffffffffffffffffffffffffff16815260200191505060405180910390f35b610a1e600480360360e081101561090a57600080fd5b81019080803573ffffffffffffffffffffffffffffffffffffffff169060200190929190803573ffffffffffffffffffffffffffffffffffffffff169060200190929190803590602001909291908035906020019064010000000081111561097157600080fd5b82018360208201111561098357600080fd5b803590602001918460018302840111640100000000831117156109a557600080fd5b90919293919293908035906020019092919080359060200190929190803590602001906401000000008111156109da57600080fd5b8201836020820111156109ec57600080fd5b80359060200191846020830284011164010000000083111715610a0e57600080fd5b909192939192939050505061188b565b005b610a286119b0565b6040518082815260200191505060405180910390f35b610b4160048036036080811015610a5457600080fd5b81019080803573ffffffffffffffffffffffffffffffffffffffff169060200190929190803573ffffffffffffffffffffffffffffffffffffffff1690602001909291908035906020019092919080359060200190640100000000811115610abb57600080fd5b820183602082011115610acd57600080fd5b80359060200191846001830284011164010000000083111715610aef57600080fd5b91908080601f016020809104026020016040519081016040528093929190818152602001838380828437600081840152601f19601f8201169050808301925050505050505091929192905050506119b6565b604051808215151515815260200191505060405180910390f35b610c5e60048036036080811015610b7157600080fd5b81019080803573ffffffffffffffffffffffffffffffffffffffff169060200190929190803573ffffffffffffffffffffffffffffffffffffffff1690602001909291908035906020019092919080359060200190640100000000811115610bd857600080fd5b820183602082011115610bea57600080fd5b80359060200191846001830284011164010000000083111715610c0c57600080fd5b91908080601f016020809104026020016040519081016040528093929190818152602001838380828437600081840152601f19601f820116905080830192505050505050509192919290505050611c97565b005b610ca260048036036020811015610c7657600080fd5b81019080803573ffffffffffffffffffffffffffffffffffffffff169060200190929190505050611d26565b005b610dc4600480360360c0811015610cba57600080fd5b81019080803573ffffffffffffffffffffffffffffffffffffffff169060200190929190803573ffffffffffffffffffffffffffffffffffffffff16906020019092919080359060200190640100000000811115610d1757600080fd5b820183602082011115610d2957600080fd5b80359060200191846001830284011164010000000083111715610d4b57600080fd5b9091929391929390803590602001909291908035906020019092919080359060200190640100000000811115610d8057600080fd5b820183602082011115610d9257600080fd5b80359060200191846020830284011164010000000083111715610db457600080fd5b9091929391929390505050611e70565b005b610dce611fec565b6040518082815260200191505060405180910390f35b610e6f60048036036060811015610dfa57600080fd5b81019080803590602001909291908035906020019092919080359060200190640100000000811115610e2b57600080fd5b820183602082011115610e3d57600080fd5b80359060200191846001830284011164010000000083111715610e5f57600080fd5b9091929391929390505050611ff2565b005b610f5b60048036036080811015610e8757600080fd5b8101908080359060200190929190803573ffffffffffffffffffffffffffffffffffffffff1690602001909291908035906020019092919080359060200190640100000000811115610ed857600080fd5b820183602082011115610eea57600080fd5b80359060200191846020830284011164010000000083111715610f0c57600080fd5b919080806020026020016040519081016040528093929190818152602001838360200280828437600081840152601f19601f82011690508083019250505050505050919291929050505061219a565b604051808215151515815260200191505060405180910390f35b610fc160048036036040811015610f8b57600080fd5b81019080803573ffffffffffffffffffffffffffffffffffffffff169060200190929190803590602001909291905050506122ad565b005b610fef60048036036020811015610fd957600080fd5b81019080803590602001909291905050506122bc565b6040518082815260200191505060405180910390f35b61100d6122d4565b604051808273ffffffffffffffffffffffffffffffffffffffff1673ffffffffffffffffffffffffffffffffffffffff16815260200191505060405180910390f35b6110916004803603602081101561106557600080fd5b81019080803573ffffffffffffffffffffffffffffffffffffffff1690602001909291905050506122fa565b005b61109b612401565b604051808273ffffffffffffffffffffffffffffffffffffffff1673ffffffffffffffffffffffffffffffffffffffff16815260200191505060405180910390f35b6110e8823383612427565b5050565b611139843385858580806020026020016040519081016040528093929190818152602001838360200280828437600081840152601f19601f820116905080830192505050505050506111af565b600061118d600b60003373ffffffffffffffffffffffffffffffffffffffff1673ffffffffffffffffffffffffffffffffffffffff168152602001908152602001600020548561276390919063ffffffff16565b905061119986826110dd565b505050505050565b6111ac333383612427565b50565b6111bb8484848461219a565b61122d576040517f08c379a000000000000000000000000000000000000000000000000000000000815260040180806020018281038252600b8152602001807f6572726f725f70726f6f6600000000000000000000000000000000000000000081525060200191505060405180910390fd5b6112388484846127ad565b50505050565b61128b338585858580806020026020016040519081016040528093929190818152602001838360200280828437600081840152601f19601f82011690508083019250505050505050611581565b50505050565b60085481565b600c8054600181600116156101000203166002900480601f01602080910402602001604051908101604052809291908181526020018280546001816001161561010002031660029004801561132d5780601f106113025761010080835404028352916020019161132d565b820191906000526020600020905b81548152906001019060200180831161131057829003601f168201915b505050505081565b600260009054906101000a900473ffffffffffffffffffffffffffffffffffffffff1673ffffffffffffffffffffffffffffffffffffffff163373ffffffffffffffffffffffffffffffffffffffff16146113f8576040517f08c379a00000000000000000000000000000000000000000000000000000000081526004018080602001828103825260168152602001807f6572726f725f6f6e6c7950656e64696e674f776e65720000000000000000000081525060200191505060405180910390fd5b600260009054906101000a900473ffffffffffffffffffffffffffffffffffffffff1673ffffffffffffffffffffffffffffffffffffffff16600160009054906101000a900473ffffffffffffffffffffffffffffffffffffffff1673ffffffffffffffffffffffffffffffffffffffff167f8be0079c531659141344cd1fd0a4f28419497f9722a3daafe3b4186f6b6457e060405160405180910390a3600260009054906101000a900473ffffffffffffffffffffffffffffffffffffffff16600160006101000a81548173ffffffffffffffffffffffffffffffffffffffff021916908373ffffffffffffffffffffffffffffffffffffffff1602179055506000600260006101000a81548173ffffffffffffffffffffffffffffffffffffffff021916908373ffffffffffffffffffffffffffffffffffffffff160217905550565b600a6020528060005260406000206000915090505481565b600d5481565b600560009054906101000a900473ffffffffffffffffffffffffffffffffffffffff1681565b61158d838584846111af565b60006115e1600b60008773ffffffffffffffffffffffffffffffffffffffff1673ffffffffffffffffffffffffffffffffffffffff168152602001908152602001600020548461276390919063ffffffff16565b90506115ed85826122ad565b5050505050565b600082905060008090505b82518160ff1610156116a4576000838260ff168151811061161c57fe5b60200260200101519050808310156116645782816040516020018083815260200182815260200192505050604051602081830303815290604052805190602001209250611696565b808360405160200180838152602001828152602001925050506040516020818303038152906040528051906020012092505b5080806001019150506115ff565b5092915050565b600b6020528060005260406000206000915090505481565b60035481565b60046020528060005260406000206000915090505481565b600160009054906101000a900473ffffffffffffffffffffffffffffffffffffffff1673ffffffffffffffffffffffffffffffffffffffff163373ffffffffffffffffffffffffffffffffffffffff16146117a4576040517f08c379a000000000000000000000000000000000000000000000000000000000815260040180806020018281038252600f8152602001807f6572726f725f6f6e6c794f776e6572000000000000000000000000000000000081525060200191505060405180910390fd5b670de0b6b3a7640000811115611822576040517f08c379a000000000000000000000000000000000000000000000000000000000815260040180806020018281038252600e8152602001807f6572726f725f61646d696e46656500000000000000000000000000000000000081525060200191505060405180910390fd5b806006819055507f11a80b766155f9b8f16a7da44d66269fd694cb1c247f4814244586f68dd534876006546040518082815260200191505060405180910390a150565b600160009054906101000a900473ffffffffffffffffffffffffffffffffffffffff1681565b6118db89898989898080601f016020809104026020016040519081016040528093929190818152602001838380828437600081840152601f19601f820116905080830192505050505050506119b6565b61194d576040517f08c379a00000000000000000000000000000000000000000000000000000000081526004018080602001828103825260128152602001807f6572726f725f6261645369676e6174757265000000000000000000000000000081525060200191505060405180910390fd5b61199a848985858580806020026020016040519081016040528093929190818152602001838360200280828437600081840152601f19601f820116905080830192505050505050506111af565b6119a5898989612427565b505050505050505050565b60065481565b60006041825114611a2f576040517f08c379a00000000000000000000000000000000000000000000000000000000081526004018080602001828103825260188152602001807f6572726f725f6261645369676e61747572654c656e677468000000000000000081525060200191505060405180910390fd5b60008060006020850151925060408501519150606085015160001a9050601b8160ff161015611a5f57601b810190505b601b8160ff161480611a745750601c8160ff16145b611ae6576040517f08c379a00000000000000000000000000000000000000000000000000000000081526004018080602001828103825260198152602001807f6572726f725f6261645369676e617475726556657273696f6e0000000000000081525060200191505060405180910390fd5b6000888730600b60008c73ffffffffffffffffffffffffffffffffffffffff1673ffffffffffffffffffffffffffffffffffffffff1681526020019081526020016000205460405160200180807f19457468657265756d205369676e6564204d6573736167653a0a313034000000815250601d018573ffffffffffffffffffffffffffffffffffffffff1673ffffffffffffffffffffffffffffffffffffffff1660601b81526014018481526020018373ffffffffffffffffffffffffffffffffffffffff1673ffffffffffffffffffffffffffffffffffffffff1660601b8152601401828152602001945050505050604051602081830303815290604052805190602001209050600060018284878760405160008152602001604052604051808581526020018460ff1660ff1681526020018381526020018281526020019450505050506020604051602081039080840390855afa158015611c4d573d6000803e3d6000fd5b5050506020604051035190508873ffffffffffffffffffffffffffffffffffffffff168173ffffffffffffffffffffffffffffffffffffffff161495505050505050949350505050565b611ca3848484846119b6565b611d15576040517f08c379a00000000000000000000000000000000000000000000000000000000081526004018080602001828103825260128152602001807f6572726f725f6261645369676e6174757265000000000000000000000000000081525060200191505060405180910390fd5b611d20848484612427565b50505050565b600160009054906101000a900473ffffffffffffffffffffffffffffffffffffffff1673ffffffffffffffffffffffffffffffffffffffff163373ffffffffffffffffffffffffffffffffffffffff1614611de9576040517f08c379a000000000000000000000000000000000000000000000000000000000815260040180806020018281038252600f8152602001807f6572726f725f6f6e6c794f776e6572000000000000000000000000000000000081525060200191505060405180910390fd5b80600560006101000a81548173ffffffffffffffffffffffffffffffffffffffff021916908373ffffffffffffffffffffffffffffffffffffffff1602179055508073ffffffffffffffffffffffffffffffffffffffff167f4721129e0e676ed6a92909bb24e853ccdd63ad72280cc2e974e38e480e0e6e5460405160405180910390a250565b611ec18888600089898080601f016020809104026020016040519081016040528093929190818152602001838380828437600081840152601f19601f820116905080830192505050505050506119b6565b611f33576040517f08c379a00000000000000000000000000000000000000000000000000000000081526004018080602001828103825260128152602001807f6572726f725f6261645369676e6174757265000000000000000000000000000081525060200191505060405180910390fd5b611f80848885858580806020026020016040519081016040528093929190818152602001838360200280828437600081840152601f19601f820116905080830192505050505050506111af565b6000611fd4600b60008a73ffffffffffffffffffffffffffffffffffffffff1673ffffffffffffffffffffffffffffffffffffffff168152602001908152602001600020548561276390919063ffffffff16565b9050611fe1898983612427565b505050505050505050565b60095481565b6000801b600080868152602001908152602001600020541461207c576040517f08c379a000000000000000000000000000000000000000000000000000000000815260040180806020018281038252600f8152602001807f6572726f725f6f7665727772697465000000000000000000000000000000000081525060200191505060405180910390fd5b606082828080601f016020809104026020016040519081016040528093929190818152602001838380828437600081840152601f19601f8201169050808301925050505050505090506120d0858583612b0d565b83600080878152602001908152602001600020819055507f444dcb3cce8fbb3e1dabd2ff958f17fb1e673b759824d631d9cda0690d031eb98585836040518084815260200183815260200180602001828103825283818151815260200191508051906020019080838360005b8381101561215757808201518184015260208101905061213c565b50505050905090810190601f1680156121845780820380516001836020036101000a031916815260200191505b5094505050505060405180910390a15050505050565b600080848487604051602001808473ffffffffffffffffffffffffffffffffffffffff1673ffffffffffffffffffffffffffffffffffffffff1660601b8152601401838152602001828152602001935050505060405160208183030381529060405280519060200120905060008060008881526020019081526020016000205490506000801b811415612295576040517f08c379a00000000000000000000000000000000000000000000000000000000081526004018080602001828103825260138152602001807f6572726f725f626c6f636b4e6f74466f756e640000000000000000000000000081525060200191505060405180910390fd5b61229f82856115f4565b811492505050949350505050565b6122b8828383612427565b5050565b60006020528060005260406000206000915090505481565b600260009054906101000a900473ffffffffffffffffffffffffffffffffffffffff1681565b600160009054906101000a900473ffffffffffffffffffffffffffffffffffffffff1673ffffffffffffffffffffffffffffffffffffffff163373ffffffffffffffffffffffffffffffffffffffff16146123bd576040517f08c379a000000000000000000000000000000000000000000000000000000000815260040180806020018281038252600f8152602001807f6572726f725f6f6e6c794f776e6572000000000000000000000000000000000081525060200191505060405180910390fd5b80600260006101000a81548173ffffffffffffffffffffffffffffffffffffffff021916908373ffffffffffffffffffffffffffffffffffffffff16021790555050565b600760009054906101000a900473ffffffffffffffffffffffffffffffffffffffff1681565b6000811161249d576040517f08c379a00000000000000000000000000000000000000000000000000000000081526004018080602001828103825260128152602001807f6572726f725f7a65726f5769746864726177000000000000000000000000000081525060200191505060405180910390fd5b60006124f182600b60008673ffffffffffffffffffffffffffffffffffffffff1673ffffffffffffffffffffffffffffffffffffffff16815260200190815260200160002054612bed90919063ffffffff16565b9050600a60008473ffffffffffffffffffffffffffffffffffffffff1673ffffffffffffffffffffffffffffffffffffffff168152602001908152602001600020548111156125a8576040517f08c379a000000000000000000000000000000000000000000000000000000000815260040180806020018281038252600f8152602001807f6572726f725f6f7665726472616674000000000000000000000000000000000081525060200191505060405180910390fd5b80600b60008573ffffffffffffffffffffffffffffffffffffffff1673ffffffffffffffffffffffffffffffffffffffff1681526020019081526020016000208190555061260182600854612bed90919063ffffffff16565b600881905550600760009054906101000a900473ffffffffffffffffffffffffffffffffffffffff1673ffffffffffffffffffffffffffffffffffffffff1663a9059cbb85846040518363ffffffff1660e01b8152600401808373ffffffffffffffffffffffffffffffffffffffff1673ffffffffffffffffffffffffffffffffffffffff16815260200182815260200192505050602060405180830381600087803b1580156126b057600080fd5b505af11580156126c4573d6000803e3d6000fd5b505050506040513d60208110156126da57600080fd5b810190808051906020019092919050505061275d576040517f08c379a000000000000000000000000000000000000000000000000000000000815260040180806020018281038252600e8152602001807f6572726f725f7472616e7366657200000000000000000000000000000000000081525060200191505060405180910390fd5b50505050565b60006127a583836040518060400160405280601e81526020017f536166654d6174683a207375627472616374696f6e206f766572666c6f770000815250612c75565b905092915050565b6000600460008581526020019081526020016000205490506003548101421161283e576040517f08c379a000000000000000000000000000000000000000000000000000000000815260040180806020018281038252600c8152602001807f6572726f725f66726f7a656e000000000000000000000000000000000000000081525060200191505060405180910390fd5b81600a60008573ffffffffffffffffffffffffffffffffffffffff1673ffffffffffffffffffffffffffffffffffffffff16815260200190815260200160002054106128f2576040517f08c379a00000000000000000000000000000000000000000000000000000000081526004018080602001828103825260118152602001807f6572726f725f6f6c644561726e696e677300000000000000000000000000000081525060200191505060405180910390fd5b612958600a60008573ffffffffffffffffffffffffffffffffffffffff1673ffffffffffffffffffffffffffffffffffffffff1681526020019081526020016000205461294a84600954612bed90919063ffffffff16565b61276390919063ffffffff16565b600981905550600760009054906101000a900473ffffffffffffffffffffffffffffffffffffffff1673ffffffffffffffffffffffffffffffffffffffff166370a08231306040518263ffffffff1660e01b8152600401808273ffffffffffffffffffffffffffffffffffffffff1673ffffffffffffffffffffffffffffffffffffffff16815260200191505060206040518083038186803b1580156129fd57600080fd5b505afa158015612a11573d6000803e3d6000fd5b505050506040513d6020811015612a2757600080fd5b8101908080519060200190929190505050612a4f60085460095461276390919063ffffffff16565b1115612ac3576040517f08c379a00000000000000000000000000000000000000000000000000000000081526004018080602001828103825260148152602001807f6572726f725f6d697373696e6742616c616e636500000000000000000000000081525060200191505060405180910390fd5b81600a60008573ffffffffffffffffffffffffffffffffffffffff1673ffffffffffffffffffffffffffffffffffffffff1681526020019081526020016000208190555050505050565b600560009054906101000a900473ffffffffffffffffffffffffffffffffffffffff1673ffffffffffffffffffffffffffffffffffffffff163373ffffffffffffffffffffffffffffffffffffffff1614612bd0576040517f08c379a00000000000000000000000000000000000000000000000000000000081526004018080602001828103825260128152602001807f6572726f725f6e6f745065726d6974746564000000000000000000000000000081525060200191505060405180910390fd5b426004600085815260200190815260200160002081905550505050565b600080828401905083811015612c6b576040517f08c379a000000000000000000000000000000000000000000000000000000000815260040180806020018281038252601b8152602001807f536166654d6174683a206164646974696f6e206f766572666c6f77000000000081525060200191505060405180910390fd5b8091505092915050565b6000838311158290612d22576040517f08c379a00000000000000000000000000000000000000000000000000000000081526004018080602001828103825283818151815260200191508051906020019080838360005b83811015612ce7578082015181840152602081019050612ccc565b50505050905090810190601f168015612d145780820380516001836020036101000a031916815260200191505b509250505060405180910390fd5b506000838503905080915050939250505056fea265627a7a72315820c41307a82520f0f3c5d150a03d5d08db63f386017b9d416825cd59dd315625f564736f6c63430005100032",
  "source": "pragma solidity ^0.5.16;\n\nimport \"monoplasma/contracts/Monoplasma.sol\";\n\ncontract DataunionVault is Monoplasma {\n\n    string public joinPartStream;\n\n    /** Server version. This must be kept in sync with src/server.js */\n    uint public version = 1;\n\n    constructor(address operator, string memory joinPartStreamId, address tokenAddress, uint blockFreezePeriodSeconds, uint adminFeeFraction)\n    Monoplasma(tokenAddress, blockFreezePeriodSeconds, adminFeeFraction) public {\n        setOperator(operator);\n        joinPartStream = joinPartStreamId;\n    }\n}\n",
  "sourcePath": "/home/heynow/streamr/data-union-server/contracts/DataunionVault.sol",
  "compiler": {
    "name": "solc",
    "version": "0.5.16+commit.9c3226ce.Emscripten.clang",
    "optimizer": false,
    "runs": 200
  },
  "schemaVersion": "2.2.4",
  "updatedAt": "2020-05-14T11:43:55.112Z"
}