{
  "contractName": "DataUnionFactoryMainnet",
  "abi": [
    {
      "inputs": [
        {
          "internalType": "address",
          "name": "_token",
          "type": "address"
        },
        {
          "internalType": "address",
          "name": "_token_mediator",
          "type": "address"
        },
        {
          "internalType": "address",
          "name": "_data_union_mainnet_template",
          "type": "address"
        },
        {
          "internalType": "address",
          "name": "_data_union_sidechain_template",
          "type": "address"
        },
        {
          "internalType": "address",
          "name": "_data_union_sidechain_factory",
          "type": "address"
        },
        {
          "internalType": "uint256",
          "name": "_sidechain_maxgas",
          "type": "uint256"
        }
      ],
      "stateMutability": "nonpayable",
      "type": "constructor"
    },
    {
      "anonymous": false,
      "inputs": [
        {
          "indexed": true,
          "internalType": "address",
          "name": "mainnet",
          "type": "address"
        },
        {
          "indexed": true,
          "internalType": "address",
          "name": "sidechain",
          "type": "address"
        },
        {
          "indexed": true,
          "internalType": "address",
          "name": "owner",
          "type": "address"
        },
        {
          "indexed": false,
          "internalType": "address",
          "name": "template",
          "type": "address"
        }
      ],
      "name": "MainnetDUCreated",
      "type": "event"
    },
    {
      "inputs": [],
      "name": "amb",
      "outputs": [
        {
          "internalType": "contract IAMB",
          "name": "",
          "type": "address"
        }
      ],
      "stateMutability": "view",
      "type": "function"
    },
    {
      "inputs": [],
      "name": "data_union_mainnet_template",
      "outputs": [
        {
          "internalType": "address",
          "name": "",
          "type": "address"
        }
      ],
      "stateMutability": "view",
      "type": "function"
    },
    {
      "inputs": [],
      "name": "data_union_sidechain_factory",
      "outputs": [
        {
          "internalType": "address",
          "name": "",
          "type": "address"
        }
      ],
      "stateMutability": "view",
      "type": "function"
    },
    {
      "inputs": [],
      "name": "data_union_sidechain_template",
      "outputs": [
        {
          "internalType": "address",
          "name": "",
          "type": "address"
        }
      ],
      "stateMutability": "view",
      "type": "function"
    },
    {
      "inputs": [],
      "name": "sidechain_maxgas",
      "outputs": [
        {
          "internalType": "uint256",
          "name": "",
          "type": "uint256"
        }
      ],
      "stateMutability": "view",
      "type": "function"
    },
    {
      "inputs": [],
      "name": "token",
      "outputs": [
        {
          "internalType": "address",
          "name": "",
          "type": "address"
        }
      ],
      "stateMutability": "view",
      "type": "function"
    },
    {
      "inputs": [],
      "name": "token_mediator",
      "outputs": [
        {
          "internalType": "contract ITokenMediator",
          "name": "",
          "type": "address"
        }
      ],
      "stateMutability": "view",
      "type": "function"
    },
    {
      "inputs": [
        {
          "internalType": "address",
          "name": "mainet_address",
          "type": "address"
        }
      ],
      "name": "sidechainAddress",
      "outputs": [
        {
          "internalType": "address",
          "name": "",
          "type": "address"
        }
      ],
      "stateMutability": "view",
      "type": "function"
    },
    {
      "inputs": [
        {
          "internalType": "address",
          "name": "deployer",
          "type": "address"
        },
        {
          "internalType": "string",
          "name": "name",
          "type": "string"
        }
      ],
      "name": "mainnetAddress",
      "outputs": [
        {
          "internalType": "address",
          "name": "",
          "type": "address"
        }
      ],
      "stateMutability": "view",
      "type": "function"
    },
    {
      "inputs": [
        {
          "internalType": "address",
          "name": "owner",
          "type": "address"
        },
        {
          "internalType": "uint256",
          "name": "adminFeeFraction",
          "type": "uint256"
        },
        {
          "internalType": "address[]",
          "name": "agents",
          "type": "address[]"
        },
        {
          "internalType": "string",
          "name": "name",
          "type": "string"
        }
      ],
      "name": "deployNewDataUnion",
      "outputs": [
        {
          "internalType": "address",
          "name": "",
          "type": "address"
        }
      ],
      "stateMutability": "nonpayable",
      "type": "function"
    }
  ],
  "bytecode": "0x608060405234801561001057600080fd5b50604051610aab380380610aab833981810160405260c081101561003357600080fd5b5080516020808301516040808501516060860151608087015160a090970151600680546001600160a01b03199081166001600160a01b03808b1691909117909255600580548216838916179081905560008054831684881617905560018054831684871617905560028054909216838c1617909155855163cd59658360e01b81529551989996989497939695929491169263cd5965839260048181019391829003018186803b1580156100e557600080fd5b505afa1580156100f9573d6000803e3d6000fd5b505050506040513d602081101561010f57600080fd5b5051600480546001600160a01b039092166001600160a01b03199092169190911790556003555050505050610962806101496000396000f3fe608060405234801561001057600080fd5b506004361061009e5760003560e01c8063c5a8c91f11610066578063c5a8c91f14610117578063cb8a191b1461011f578063d4c31bd41461025e578063e4a154a414610314578063fc0c546a1461031c5761009e565b8063015a0da0146100a35780631062b39a146100c757806317c2a98c146100cf57806335813bc1146100f5578063692199d4146100fd575b600080fd5b6100ab610324565b604080516001600160a01b039092168252519081900360200190f35b6100ab610333565b6100ab600480360360208110156100e557600080fd5b50356001600160a01b0316610342565b6100ab61036c565b61010561037b565b60408051918252519081900360200190f35b6100ab610381565b6100ab6004803603608081101561013557600080fd5b6001600160a01b038235169160208101359181019060608101604082013564010000000081111561016557600080fd5b82018360208201111561017757600080fd5b8035906020019184602083028401116401000000008311171561019957600080fd5b91908080602002602001604051908101604052809392919081815260200183836020028082843760009201919091525092959493602081019350359150506401000000008111156101e957600080fd5b8201836020820111156101fb57600080fd5b8035906020019184600183028401116401000000008311171561021d57600080fd5b91908080601f016020809104026020016040519081016040528093929190818152602001838380828437600092019190915250929550610390945050505050565b6100ab6004803603604081101561027457600080fd5b6001600160a01b03823516919081019060408101602082013564010000000081111561029f57600080fd5b8201836020820111156102b157600080fd5b803590602001918460018302840111640100000000831117156102d357600080fd5b91908080601f01602080910402602001604051908101604052809392919081815260200183838082843760009201919091525092955061062d945050505050565b6100ab6106ee565b6100ab6106fd565b6000546001600160a01b031681565b6004546001600160a01b031681565b600154600254600091610366916001600160a01b039182169190811690851661070c565b92915050565b6002546001600160a01b031681565b60035481565b6005546001600160a01b031681565b60008082336040516020018080602001836001600160a01b03166001600160a01b03168152602001828103825284818151815260200191508051906020019080838360005b838110156103ed5781810151838201526020016103d5565b50505050905090810190601f16801561041a5780820380516001836020036101000a031916815260200191505b5093505050506040516020818303038152906040528051906020012090506060600660009054906101000a90046001600160a01b0316600560009054906101000a90046001600160a01b0316600260009054906101000a90046001600160a01b0316600354600160009054906101000a90046001600160a01b03168b8b8b60405160240180896001600160a01b03166001600160a01b03168152602001886001600160a01b03166001600160a01b03168152602001876001600160a01b03166001600160a01b03168152602001868152602001856001600160a01b03166001600160a01b03168152602001846001600160a01b03166001600160a01b0316815260200183815260200180602001828103825283818151815260200191508051906020019060200280838360005b8381101561055f578181015183820152602001610547565b50506040805193909501838103601f190184529094525060208101805163fb6470c960e01b6001600160e01b0390911617905260008054919e509c506105c59b506105be9a506001600160a01b03169850610778975050505050505050565b83856107ca565b9050876001600160a01b03166105da82610342565b600054604080516001600160a01b039283168152905192821692918516917f7bb36c64b37ae129eda8a24fd78defec04cc7a06bb27863c5a4571dd5d70acee9181900360200190a4979650505050505050565b604080516001600160a01b0384168183015260208082019283528351606083015283516000938493869388938392608001918601908083838a5b8381101561067f578181015183820152602001610667565b50505050905090810190601f1680156106ac5780820380516001836020036101000a031916815260200191505b5060408051601f1981840301815291905280516020909101206000549095506106e694506001600160a01b0316925030915084905061070c565b949350505050565b6001546001600160a01b031681565b6006546001600160a01b031681565b60008061071885610778565b8051602091820120604080516001600160f81b0319818501526bffffffffffffffffffffffff19606089901b1660218201526035810187905260558082019390935281518082039093018352607501905280519101209150509392505050565b604080516057810190915260378152733d602d80600a3d3981f3363d3d373d3d3d363d7360601b602082015260609190911b60348201526e5af43d82803e903d91602b57fd5bf360881b604882015290565b825160009082816020870184f591506001600160a01b03821661082b576040805162461bcd60e51b8152602060048201526014602482015273195c9c9bdc97d85b1c9958591e50dc99585d195960621b604482015290519081900360640190fd5b835115610924576000826001600160a01b0316856040518082805190602001908083835b6020831061086e5780518252601f19909201916020918201910161084f565b6001836020036101000a0380198251168184511680821785525050505050509050019150506000604051808303816000865af19150503d80600081146108d0576040519150601f19603f3d011682016040523d82523d6000602084013e6108d5565b606091505b5050905080610922576040805162461bcd60e51b815260206004820152601460248201527332b93937b92fb4b734ba34b0b634bd30ba34b7b760611b604482015290519081900360640190fd5b505b50939250505056fea264697066735822122084945f9903b2d49dc74f1c2fb52a86a2b798a1ca3d19412037d748182369d7ea64736f6c63430006060033",
  "immutableReferences": {},
  "source": "pragma solidity 0.6.6;\n\nimport \"openzeppelin-solidity/contracts/token/ERC20/IERC20.sol\";\nimport \"openzeppelin-solidity/contracts/math/SafeMath.sol\";\nimport \"./CloneLib.sol\";\nimport \"./IAMB.sol\";\nimport \"./ITokenMediator.sol\";\n\ninterface IDataUnionMainnet {\n    function sidechainAddress() external view returns (address proxy);\n}\n\n\ncontract DataUnionFactoryMainnet {\n    event MainnetDUCreated(address indexed mainnet, address indexed sidechain, address indexed owner, address template);\n\n    address public data_union_mainnet_template;\n\n    // needed to calculate address of sidechain contract\n    address public data_union_sidechain_template;\n    address public data_union_sidechain_factory;\n    uint256 public sidechain_maxgas;\n    IAMB public amb;\n    ITokenMediator public token_mediator;\n    address public token;\n\n    constructor(address _token,\n                address _token_mediator,\n                address _data_union_mainnet_template,\n                address _data_union_sidechain_template,\n                address _data_union_sidechain_factory,\n                uint256 _sidechain_maxgas)\n        public\n    {\n        token = _token;\n        token_mediator = ITokenMediator(_token_mediator);\n        data_union_mainnet_template = _data_union_mainnet_template;\n        data_union_sidechain_template = _data_union_sidechain_template;\n        data_union_sidechain_factory = _data_union_sidechain_factory;\n        amb = IAMB(token_mediator.bridgeContract());\n        sidechain_maxgas = _sidechain_maxgas;\n    }\n\n\n    function sidechainAddress(address mainet_address)\n        public view\n        returns (address)\n    {\n        return CloneLib.predictCloneAddressCreate2(\n            data_union_sidechain_template,\n            data_union_sidechain_factory,\n            bytes32(uint256(mainet_address))\n        );\n    }\n    /*\n\n    */\n    function mainnetAddress(address deployer, string memory name)\n        public view\n        returns (address)\n    {\n        bytes32 salt = keccak256(abi.encode(bytes(name), deployer));\n        return CloneLib.predictCloneAddressCreate2(\n            data_union_mainnet_template,\n            address(this),\n            salt\n        );\n    }\n\n\n/*\n    function initialize(\n        address _token,\n        address _token_mediator,\n        address _sidechain_DU_factory,\n        uint256 _sidechain_maxgas,\n        address _sidechain_template_DU,\n        address _owner,\n        uint256 adminFeeFraction,\n        address[] memory agents\n    )  public {\n    users can only deploy with salt = their key.\n*/\n    function deployNewDataUnion(address owner, uint256 adminFeeFraction, address[] memory agents, string memory name)\n        public\n        returns (address)\n    {\n        bytes32 salt = keccak256(abi.encode(bytes(name), msg.sender));\n        bytes memory data = abi.encodeWithSignature(\"initialize(address,address,address,uint256,address,address,uint256,address[])\",\n            token,\n            token_mediator,\n            data_union_sidechain_factory,\n            sidechain_maxgas,\n            data_union_sidechain_template,\n            owner,\n            adminFeeFraction,\n            agents\n        );\n        address du = CloneLib.deployCodeAndInitUsingCreate2(CloneLib.cloneBytecode(data_union_mainnet_template), data, salt);\n        emit MainnetDUCreated(du, sidechainAddress(du), owner, data_union_mainnet_template);\n        return du;\n    }\n}\n",
  "sourcePath": "/home/heynow/streamr/data-union-solidity/contracts/DataUnionFactoryMainnet.sol",
  "compiler": {
    "name": "solc",
    "version": "0.6.6+commit.6c089d02.Emscripten.clang"
  },
  "schemaVersion": "3.2.3",
  "updatedAt": "2020-12-09T11:44:39.453Z",
  "devdoc": {
    "methods": {}
  },
  "userdoc": {
    "methods": {}
  }
}